:020000040000fa
:10000000f0ff0120ad5b0101897701018d770101ce
:1000100095770101997701019d77010100000000aa
:10002000000000000000000000000000b92a0101eb
:1000300091770101000000001d2b0101852b0101ba
:100040002f2a01012f2a01012f2a0101651a01011e
:100050002f2a01012f2a01012f2a01012f2a010134
:100060002f2a01012f2a01012f2a01012f2a010124
:10007000ede900012f2a01012f2a01012f2a010198
:100080002f2a01012f2a01012f2a0101e94501012f
:100090002f2a01012f2a01012f2a01012f2a0101f4
:1000a0002f2a01012f2a01012f2a01012f2a0101e4
:1000b0002f2a01012f2a0101594001012f2a010194
:1000c0002f2a0101e54d01012f2a01012f2a0101eb
:1000d0002f2a01012f2a01012f2a01012f2a0101b4
:020000040000fa
:020000040004f6
:045f8800ffff000017
:020000040000fa
:020000040004f6
:045f8c0000400e843f
:020000040000fa
:020000040004f6
:045f900038fc745f06
:020000040000fa
:020000040004f6
:045f94003844121467
:020000040000fa
:020000040004f6
:045f98000300007191
:020000040000fa
:020000040004f6
:045f9c000000000001
:020000040000fa
:020000040004f6
:045fbc0000000010d1
:020000040000fa
:020000040100f9
:10400000f8b500bff8bc08bc9e467047bd6c010106
:10401000f8b500bff8bc08bc9e467047996c01011a
:020000040000fa
:020000040100f9
:08402000c4d4000001000000ff
:020000040000fa
:020000040100f9
:104028000d0a20434d443e0d0a0000000d0a2044ad
:10403800657374696e6174696f6e2041646472653a
:104048007373203a20307825780a20000d0a205210
:1040580053534920426173652056616c756520256c
:10406800640d0a000d0a2053544f5020414c4c2037
:104078004143544956452054455354204d4f4445d7
:10408800530d0a000d0a2050455220544553542020
:104098004d4f44450d0a00000d0a20434f4e544928
:1040a8004e554f55532054455354204d4f444520a9
:1040b8000d0a00000d0a2050524f4d495343554fe9
:1040c80055532054455354204d4f44450d0a000084
:1040d8000d0a204945454520416464726573732083
:1040e8003a20307825780d0a000000000d0a204398
:1040f800534d41204d6f6465202d204e4f5f435333
:104108004d415f4e4f5f4946530d0a000d0a20434b
:10411800534d41204d6f6465202d204e4f5f435312
:104128004d415f574954485f4946530d0a00000006
:104138000d0a2043534d41204d6f6465202d2043c7
:10414800534d415f554e534c4f545445440d0a004e
:104158000d0a2043534d41204d6f6465202d2043a7
:10416800534d415f534c4f545445440d0a000000d1
:104178000d0a204672616d652054797065203a20d9
:1041880000000000426561636f6e206672616d65b4
:104198000d0a000044617461206672616d650d0a44
:1041a8000000000041636b206672616d650d0a00b6
:1041b800434d44206672616d650d0a004c4c444eb7
:1041c800206672616d650d0a000000004d756c7403
:1041d80069707572706f7365206672616d650d0a1e
:1041e80000000000496e76616c6964206672616d3a
:1041f800650d0a000d0a204170702052652d696e08
:10420800697469616c697a65640d0a000d0a496e02
:1042180076616c696420696e7075740d0a0000001f
:104228000d0a205468726f7567687075742054653c
:104238007374204d6f64650d0a0000000d0a205448
:10424800696d6572204e6f74205374617274656471
:104258000d0a00003a20504859204c6179657220b7
:10426800636f6d6d616e6473000000005068794380
:104278006d647300c44f0001cd680001cc4f00018c
:10428800e84f0001456d0001f44f00014450000162
:10429800896d00015050000190500001096e000125
:1042a800a0500001d850000159760001e8500001e3
:1042b80030510001916800013c5100016451000136
:1042c8005571000170510001a051000151680001b1
:1042d800b0510001d8510001d1710001e85100012d
:1042e80020520001156800012c52000150520001b3
:1042f800557200015c520001885200013d5f0001c7
:1043080094520001bc520001c1720001c852000160
:1043180000530001255f0001105300013c530001c8
:104328009d7300014c53000190530001e1670001a7
:10433800945200019c53000111740001a85300011c
:10434800dc53000161600001e853000110540001d2
:10435800957400011c5400014c5400019967000138
:10436800585400017c54000135750001885400013f
:10437800b454000131600001c0540001e854000148
:10438800b5650001f454000130550001596700017a
:104398004055000168550001e57500017855000198
:1043a800b055000109700001bc5500010c56000110
:1043b8004d700001185600016c5600013d67000160
:1043c80078560001985600018d7000019c56000136
:1043d800d8560001e16a0001ec5600015c57000163
:1043e800c56b00016c570001b8570001195f000147
:1043f800bc570001dc570001f9640001e0570001d7
:104408001c5800018d6400012c58000174580001eb
:10441800695f000184580001c4580001c15f0001b0
:10442800d458000104590001815f000110590001ae
:104438003859000105600001485900017c59000104
:104448007161000190590001c8590001155f000110
:10445800d8590001185a0001ed610001285a0001dd
:10446800905a0001a5600001a05a0001c05a00013d
:10447800b96e0001d05a0001fc5a000125730001f1
:104488000c5b0001745b0001fd700001805b0001a2
:10449800c85b00013d610001d85b00011c5c0001a4
:1044a800816a00012c5c0001b45c00017d6f000191
:1044b800c45c0001285d0001515f0001385d000106
:1044c800785d00016d690001885d0001bc5d000137
:1044d800c16f0001d05d0001485e0001f16100017b
:1044e800545e0001705e0001e9610001885e000110
:1044f800ac5e000161640001c45e0001e05e000181
:1045080089650001f85e000174727565000000009d
:10451800547275650000000066616c7365000000e8
:1045280046616c73650000000d0a496e76616c691e
:104538006420696e7075742e20506c6561736520f7
:10454800656e746572206569746865722027747277
:10455800756527206f72202766616c7365270d0ac1
:10456800000000000d0a205468726f756768707546
:10457800742054696d65722073657420746f2025ea
:10458800752075736563730d0a0000000d0a204dd0
:10459800697373696e6720506172616d65746572c5
:1045a800200d0a000d0a2054696d65722073657428
:1045b80020746f2025750d0a000000000d0a204e9a
:1045c8006f2e206f66207061636b65747320696e4f
:1045d800205045522074657374204d6f64652073b4
:1045e800657420746f20307825780d0a000000006b
:1045f8000d0a5048595f535543434553530d0a001c
:104608000d0a5048595f5452585f41534c45455024
:104618000d0a00000d0a5048595f5452585f41571f
:10462800414b450d0a0000000d0a5048595f52469b
:104638005f5245515f41424f525445440d0a0000b4
:104648000d0a5048595f52465f554e415641494cf4
:1046580041424c450d0a00000d0a5048595f464139
:10466800494c5552450d0a005048595f4255535917
:104678000d0a00000d0a5048595f4652414d455fea
:1046880050454e44494e470d0a0000000d0a504857
:10469800595f494e56414c49445f504152414d453e
:1046a8005445520d0a0000000d0a5048595f554ef6
:1046b800535550504f525445445f41545452494207
:1046c8005554450d0a0000000d0a5048595f4348eb
:1046d800414e4e454c5f425553590d0a00000000ab
:1046e8000d0a5048595f4348414e4e454c5f494476
:1046f8004c450d0a000000000d0a5048595f4e4f06
:104708005f41434b0d0a00000d0a5048595f43486a
:10471800414e4e454c5f4143434553535f464149e3
:104728004c5552450d0a00000d0a5048595f554e28
:104738004b4e4f574e5f53544154450d0a000000ed
:1047480057616b657570205472616e736365697625
:1047580065722e2e2e0d0a000d0a204672616d65b7
:10476800207265747279202d2025780a20000000b7
:104778000d0a20547820506f77657228696e20449e
:10478800426d29202d2025642044426d0d0a200009
:104798000d0a20547820506f776572202d202564eb
:1047a8000d0a20000d0a20536f757263652041645d
:1047b8006472657373203a20307825780d0a0000fa
:1047c8000d0a2050414e204944202d20307825786c
:1047d8000a2000000d0a204368616e6e656c205047
:1047e800616765202d2025640a2000000d0a2043fa
:1047f80068616e6e656c20202d20307825780a203f
:1048080000000000496e697469616c697a696e67b5
:10481800205048592e2e2e0d0a0000005048595f8e
:104828005452585f4f46460d0a0000005048595fe1
:1048380052585f4f4e0d0a005048595f54585f4f09
:104848004e0d0a005048595f425553595f52580d52
:104858000a0000005048595f425553595f54580d9b
:104868000a0000005048595f5452585f534c454560
:10487800500d0a005048595f5452585f44454550fe
:104888005f534c4545500d0a000000005048595fe1
:10489800554e4b4e4f574e5f53544154450d0a00e9
:1048a8000d0a537563636573730d0a0045727225ab
:1048b800643a2000556e6b6e6f776e20436f6d6d96
:1048c800616e640d0a000000496e76616c696420af
:1048d800506172616d657465720d0a004d6973737c
:1048e800696e6720506172616d657465720d0a00aa
:1048f800496e76616c696420506172616d6574659a
:104908007220547970650d0a0000000050617261d0
:104918006d65746572204f7574206f662052616ee4
:1049280067650d0a00000000496e76616c696420b5
:10493800466f726d61740d0a00000000536372695e
:1049480070742050617273696e67204572726f725d
:104958000d0a0000486561702046756c6c0d0a00f0
:10496800496e76616c69642053746174650d0a0040
:104978004e6f205265736f75726365730d0a000080
:10498800424c45204572720d0a00000048414c20f7
:104998004572720d0a000000556e6b6e6f776e20bf
:1049a8004572720d0a0000000d0a5472782069736e
:1049b80020636f6e6669677572656420746f207214
:1049c80065647563656420706f77657220636f6ec8
:1049d80073756d7074696f6e206d6f64650d0a0074
:1049e8000d0a547278207265647563656420706f6f
:1049f80077657220636f6e73756d7074696f6e2062
:104a08006d6f64652069732064697361626c6564a5
:104a18000d0a00000d0a2044657669636520496e19
:104a2800646578206973203a2025640a0000000034
:104a38000d0a2053686f7274204164647265737341
:104a4800206973203a000000307825780d0a0000ac
:104a58000d0a204965656520416464726573732099
:104a680069733a000d0a444556494e44580953485b
:104a78004f525441444452094c51490952535349e5
:104a8800095458504b54434e54095258504b5443b0
:104a98004e540949454545414444520d0a00000019
:104aa8002564090030782578090900002538780937
:104ab80000000000253878000d0a446576696365b2
:104ac80020496e64657820697320696e76616c6927
:104ad800640d0a000a000000526573657474696efb
:104ae80067205048592e2e2e0d0a0000456e65721b
:104af800677920446574656374696f6e20536361d8
:104b08006e6e696e672053746172742e2e2e0d0ab4
:104b1800000000004544207363616e206475726173
:104b280074696f6e2074696d657220737461727434
:104b38006564207375636365737366756c6c792c33
:104b4800207363616e6e6564206368616e6e656c68
:104b58002069732025640d0a0000000047657474fd
:104b6800696e672050485920504942206174747218
:104b780069627574652e2e2e0d0a00000d0a2050ec
:104b880048592050494220506172616d65746572c0
:104b980020202d20307825780a2000000d0a204694
:104ba80072616d6554797065206973203a00000060
:104bb8000d0a54727820697320636f6e6669677591
:104bc80072656420746f206175746f2061636b6e09
:104bd8006f776c6564676520666f722074686520fe
:104be8007265636569766564207061636b65740dd1
:104bf8000a000000456e61626c696e672052656349
:104c080065697665722066726f6d205048595f53ea
:104c1800544154455f5452585f4f464620746f20a4
:104c28005048595f53544154455f52585f4f4e2e78
:104c38002e2e0d0a0000000053657474696e6720fb
:104c48005472616e7363656976657220746f205360
:104c58006c6565702e2e2e0d0a0000005365747465
:104c6800696e672043757272656e74204368616e61
:104c78006e656c20746f2025642000000d0a20509a
:104c88006572666f726d696e67204343412e2e2ee2
:104c98000d0a00000d0a2050414e204944203a20b8
:104ca800307825780a2000000d0a20457869737449
:104cb800696e672044657374696e6174696f6e20ec
:104cc80041646472657373202d20307825780a203a
:104cd800000000000d0a204e657720446573746952
:104ce8006e6174696f6e2041646472657373202d00
:104cf80020307825780a20000d0a2053656c6563fa
:104d08007465642044657374696e6174696f6e209c
:104d180044657669636520697320696e20496e640d
:104d28006578202d2025640a200000000d0a496eb0
:104d380064657820696e20646576696365207461ae
:104d4800626c6520697320656d7074792c207570ac
:104d5800646174652074686520646576696365209c
:104d68007461626c650d0a000d0a204578697374d8
:104d7800696e6720536f757263652041646472655c
:104d88007373202d20307825780a20000d0a204ed4
:104d9800657720536f75726365204164647265732b
:104da80073203a202564200d0a0000000d0a2054c3
:104db8007820506f776572202d2025642044426d3d
:104dc8000d0a20000d0a53657420547820506f771f
:104dd8006572202d2025642044426d0d0a200000b4
:104de8000d0a204672616d652072657472792073b0
:104df800657420746f2d2025780a20000d0a204143
:104e08007474726962757465204944206973203a24
:104e180020256420000000000a41747472696275dc
:104e280074652076616c75652073657420746f3abb
:104e380020307825780000000d0a20547820506f23
:104e480077657228696e2044426d29202d202564db
:104e58000d0a20000a547820506f77657220736518
:104e68007420746f3a2025640d0a00000d0a203161
:104e780036206269742041747472696275746520a1
:104e880076616c756520697320203a2025752000ad
:104e98000d0a2053657474696e6720504859205074
:104ea8004942206174747269627574652e2e2e0de4
:104eb8000a0000000a41747472696275746520768c
:104ec800616c75652073657420746f3a203078259d
:104ed800347800000d0a20446576696365205065c2
:104ee80072666f726d616e63652044617461204df6
:104ef8006f64650d0a0000000d0a20446576696339
:104f08006520506572666f726d616e6365205065cd
:104f180072696f642054657374204d6f64650d0a5f
:104f2800000000000d0a204465766963652050651d
:104f380072666f726d616e636520436f6e74696e21
:104f4800756f75732054657374204d6f64650d0a11
:104f5800000000000d0a20446576696365205065ed
:104f680072666f726d616e6365205045522054659c
:104f78007374204d6f64650d0a0000000d0a20440b
:104f8800657669636520506572666f726d616e63e0
:104f98006520696e205468726f7567687075742033
:104fa80054657374204d6f646520666f7220257593
:104fb8002075736563730d0a0000000070687949f5
:104fc8006e6974003a496e697469616c697a652022
:104fd8005048593a20706879496e69740000000099
:104fe8007068795265736574000000003a52657301
:104ff800657420746865205048592073746174651d
:10500800206d616368696e653a20706879526573ce
:1050180065742c3c7365742064656661756c7420d6
:105028005049422076616c7565732d302f31203ad6
:1050380020522c312f303e0d0a000000706879454f
:10504800645363616e0000003a45442073746172d2
:10505800743a2070687945645363616e2c3c7365bb
:1050680074207363616e206475726174696f6e2059
:1050780072616e67696e672066726f6d20312d31bf
:10508800343e0d0a0000000067657441747472694b
:1050980062757465000000003a47657420504859ed
:1050a80020504942206174747269627574653a20af
:1050b8006765744174747269627574652c3c6174b7
:1050c800747269627574652069643e0d0a00000097
:1050d80073657441747472696275746500000000c8
:1050e8003a536574205048592050494220617474dd
:1050f8007269627574653a20736574417474726973
:10510800627574652c3c617474726962757465208b
:1051180069643e2c3c6174747269627574652076aa
:10512800616c75653e0d0a006765744368616e6e53
:10513800656c00003a476574205048592050494230
:10514800206174747269627574653a206765744386
:1051580068616e6e656c0d0a00000000736574432b
:1051680068616e6e656c00003a536574205048594a
:1051780020504942206174747269627574653a20de
:105188007365744368616e6e656c2c3c6368616e10
:105198006e656c3e0d0a00006765744368616e6e4b
:1051a800656c5067000000003a4765742050485904
:1051b80020504942206174747269627574653a209e
:1051c8006765744368616e6e656c50670d0a000010
:1051d8007365744368616e6e656c5067000000000b
:1051e8003a536574205048592050494220617474dc
:1051f8007269627574653a207365744368616e6e8e
:10520800656c50672c3c6368616e6e656c207061dc
:1052180067653e0d0a00000067657450616e496459
:10522800000000003a476574205048592050494210
:10523800206174747269627574653a206765745088
:10524800616e49640d0a000073657450616e4964ab
:10525800000000003a5365742050485920504942d4
:10526800206174747269627574653a20736574504c
:10527800616e49642c3c50414e2049443e0d0a0061
:105288006765744465737441646472003a47657471
:1052980020504859205049422061747472696275df
:1052a80074653a2067657444657374416464720d6b
:1052b8000a00000073657444657374416464720085
:1052c8003a536574205048592050494220617474fb
:1052d8007269627574653a207365744465737441c4
:1052e8006464722c3c6465737420616464726573d1
:1052f800733e0d0a000000006765744578744465c4
:1053080073744164647200003a47657420504859c8
:1053180020504942206174747269627574653a203c
:1053280067657445787444657374416464720d0ae2
:1053380000000000736574457874446573744164b3
:10534800647200003a53657420504859205049420d
:10535800206174747269627574653a207365744566
:10536800787444657374416464722c3c4578742085
:1053780064657374206164647265737320363420c5
:105388006269743e0d0a0000676574537263416474
:105398006472000073657453726341646472000040
:1053a8003a5365742050485920504942206174741a
:1053b8007269627574653a207365744465737441e3
:1053c8006464722c3c7372632061646472657373e5
:1053d8003e0d0a0067657443736d614d6f64650027
:1053e8003a476574205048592050494220617474e6
:1053f8007269627574653a2067657443736d614daf
:105408006f64650d0a00000073657443736d614d28
:105418006f6465003a5365742050485920504942da
:10542800206174747269627574653a207365744397
:10543800736d614d6f64652c3c6d6f64653e0d0a3c
:10544800000000006765745478507772000000000f
:105458003a47657420504859205049422061747475
:105468007269627574653a2067657454785077720a
:105478000d0a0000736574547850777200000000bc
:105488003a53657420504859205049422061747439
:105498007269627574653a207365745478507772ce
:1054a8002c3c7478207077723e0d0a006765744949
:1054b80065656541646472003a47657420504859cf
:1054c80020504942206174747269627574653a208b
:1054d80067657449656565416464720d0a0000007a
:1054e8007365744965656541646472003a5365740f
:1054f800205048592050494220617474726962757d
:1055080074653a2073657449656565416464722cf5
:105518003c4965656520616464726573732036343f
:10552800206269743e0d0a006765744672616d6594
:1055380052657472790000003a47657420504859e2
:1055480020504942206174747269627574653a200a
:105558006765744672616d6552657472790d0a00eb
:105568007365744672616d655265747279000000e6
:105578003a53657420504859205049422061747448
:105588007269627574653a207365744672616d65f7
:1055980052657472792c3c4e6f206f662072657468
:1055a800726965733e0d0a007278456e61626c65ba
:1055b800000000003a525820454e41424c453a20de
:1055c8007278456e61626c652c3c53657420545248
:1055d8005820737461746573205048595f5354415f
:1055e80054455f52585f4f4e2f5048595f535441ae
:1055f80054455f5452585f4f46463a20312f303e4b
:105608000d0a0000747278536c6565700000000024
:105618003a5365742054525820746f20736c656532
:10562800702f6465657020736c6565703a207472bc
:1056380078536c6565702c3c736c656570206d6f74
:105648006465202d20736c70206d6f646520312f88
:105658006465657020736c656570202d20302f316e
:105668003e0d0a0074727857616b65757000000012
:105678003a5365742054525820746f2057616b65f3
:1056880075703a2074727857616b6575700d0a00f1
:1056980043434100506572666f726d204343412059
:1056a8006f6e2064657369726564206368616e6eed
:1056b800656c203a204343412c3c706879636861eb
:1056c8006e6e656c3a2031312d32363e0d0a00007f
:1056d8007570646174654465766963655461626c6c
:1056e800650000007570646174652064657669639f
:1056f80065207461626c65203a2075706461746518
:105708004465766963655461626c652c3c506172ce
:10571800616d657465723a206465766963652069b0
:105728006e6465782c73686f727420616464726546
:10573800737328313620626974292c2049656565a0
:105748002061646472657373283634206269742931
:105758003e0d0a007265616444657669636554614b
:10576800626c6500726561642064657669636520b2
:105778007461626c65203a2072656164446576697b
:1057880063655461626c652c3c506172616d65742f
:1057980065723a2064657669636520696e64657828
:1057a800202d2d20462f696e6465783e0d0a000075
:1057b800262626003a53776974636820746f20633d
:1057c8006f6d6d616e64206d6f64653a20262626c4
:1057d8000d0a00002b2b2b003a737769746368203d
:1057e800746f205573657220496e707574206461fa
:1057f8007461206d6f64653a202b2b2b2c3c7469e7
:105808006d6520706572696f6420696e2075733ede
:105818000d0a0000706572696f64546573744d6f8a
:10582800646500003a73776974636820746f207048
:105838006572696f6469632074657374206d6f6441
:10584800653a20706572696f64546573744d6f644e
:10585800652c3c74696d657220706572696f64208f
:10586800696e2075733e0d0a0000000073746f7036
:10587800546573744d6f64650000000053746f7055
:1058880020616c6c20616374697665206170706c4e
:1058980069636174696f6e2074657374206d6f64d9
:1058a80065733a2073746f70506572696f645465dc
:1058b80073744d6f64650d0a20000000636f6e7489
:1058c800546573744d6f6465000000003a7377691e
:1058d80074636820746f20636f6e74696e756f757a
:1058e800732074657374206d6f64653a20636f6efe
:1058f80074546573744d6f64650d0a007065725455
:105908006573744d6f6465003a73776974636820d2
:10591800746f205045522074657374206d6f6465f0
:105928003a20706572546573744d6f64650d0a0092
:1059380070726f6d546573744d6f6465000000007c
:105948003a73776974636820746f2070726f6d6939
:105958007363756f75732074657374206d6f6465f8
:105968003a2050726f6d546573744d6f64650d0afb
:10597800000000007468726f75676870757454650c
:1059880073744d6f646500003a73776974636820b7
:10599800746f207468726f756768707574207465a9
:1059a8007374206d6f64653a207468726f756768e8
:1059b800707574546573744d6f64650d0a0000004a
:1059c800676574416464724d6f646573000000001c
:1059d8003a67657420736f7572636520616e642021
:1059e80064657374696e6174696f6e206164647252
:1059f800657373696e67206d6f6465733a206765b8
:105a080074416464724d6f6465730d0a0000000090
:105a1800736574416464724d6f64657300000000bf
:105a28003a73657420736f7572636520616e6420c4
:105a380064657374696e6174696f6e206164647201
:105a4800657373696e67206d6f6465733a2073655b
:105a580074416464724d6f6465732c3c7372632087
:105a680061646472206d6f64653a302d333e2c3c5e
:105a7800646573742061646472206d6f64653a3084
:105a88002d333e0d0a0000006765744672616d652e
:105a980054797065000000003a6765742066726189
:105aa8006d6520747970653a206765744672616d1a
:105ab80065547970650000007365744672616d65a0
:105ac80054797065000000003a736574206672614d
:105ad8006d6520747970653a207365744672616dde
:105ae80065547970652c3c52616e67653a20302d9b
:105af800353e000073656c65637444737444657661
:105b0800000000003a73656c656374206465737403
:105b1800696e6174696f6e20646576696365206675
:105b2800726f6d20646576696365207461626c6567
:105b38003a2073656c65637444737444657669636d
:105b4800652c3c446576696365207461626c6520e8
:105b5800496e6465783a20302d4e554d5f4f465f4b
:105b6800444556494345533e0d0a00007068794341
:105b78006e745478000000003a5374617274732094
:105b8800636f6e74696e756f7573207472616e736e
:105b98006d697373696f6e206f6e206375727265bd
:105ba8006e74206368616e6e656c3a207068794324
:105bb8006e7454782c3c74784d6f64653e0d0a0001
:105bc80073746f70506879436e74547800000000e5
:105bd8003a53746f707320636f6e74696e756f7566
:105be80073207472616e736d697373696f6e206f61
:105bf8006e2063757272656e74206368616e6e657f
:105c08006c3a2073746f70506879436e7454780dd1
:105c18000a000000436f6e66696752785250434d20
:105c28006f646500436f6e6669677572657320748b
:105c38006865207265647563656420706f77657246
:105c480020636f6e73756d7074696f6e206d6f640d
:105c5800653a20436f6e66696752785250434d6fbc
:105c680064652c3c30783031202d20546f20456eef
:105c780061626c6520746865207278525043206dab
:105c88006f64652c2030783030202d20546f2064cc
:105c9800697361626c65207468652072782052505f
:105ca80043206d6f64653e0d0a000000636f6e66e9
:105cb80069674175746f41636b000000436f6e66de
:105cc8006967757265732054525820666f72206137
:105cd80075746f2061636b6e6f776c656467696e4e
:105ce80067207468652072657365727665642066de
:105cf80072616d653a20636f6e6669674175746f8e
:105d080041636b2c3c656e61626c654141434b2d70
:105d1800747275652f66616c73653e0d0a0000002c
:105d2800676574525353494261736556616c00004c
:105d380067657420746865206261736520525353e7
:105d4800492076616c756520666f72207265737084
:105d580065637469766520726164696f733a676513
:105d680074525353494261736556616c0d0a0000c1
:105d78006765745472785374617475730000000019
:105d88006765742074686520737461747573206f17
:105d98006620746865207472616e736365697665e0
:105da800723a6765745472785374617475730d0a26
:105db80000000000636f6e666967527853656e7302
:105dc8006974697669747900436f6e66696775727c
:105dd80065732072656365697665722073656e7395
:105de80069746976697479206c6576656c2e2054bf
:105df800686973206973207573656420746f206403
:105e08006573656e736974697a6520746865207254
:105e1800656365697665723a636f6e66696752781d
:105e280053656e73697469766974792c3c7064740f
:105e38006c6576656c2d3e302d31353e0d0a0000bf
:105e4800636f6e666967547850777200636f6e6629
:105e580069677572652074686520545820506f779b
:105e680065720d0a00000000636f6e666967416e17
:105e780074656e6e61446976657273697479000041
:105e8800436f6e6669677572652074686520416e38
:105e980074656e6e61204469766572736974790df4
:105ea8000a0000007570646174655468726f7567e4
:105eb8006870757454696d65000000005570646100
:105ec8007465205468726f756768707574205469ba
:105ed8006d65720d0a000000757064617465504547
:105ee80052546573745061636b657473436e7400c8
:105ef8005570646174652050455220746573742030
:0c5f08005061636b6574730d0a0000bfec
:020000040000fa
:020000040100f9
:105f1400704700bf014900200bf0b2bf28400001c8
:105f2400034b0449d3e9062300200bf0a9bf00bfab
:105f34000800002034400001024b03495a8a002023
:105f44000bf09ebf080000203440000108b511f09a
:105f540040fd03490246bde8084000200bf090bf15
:105f64005440000108b5044900200bf089ffbde846
:105f7400084003f0f5bd00bf6c40000108b50b49b3
:105f840000200bf07dff03f0ebfd094b09480022d4
:105f94004ff480711a6099809a710cf0c7fa064b1d
:105fa40001221a76bde8084003f080bd8c40000150
:105fb400e400002060e31600f8da002010b503f0d6
:105fc400cffd0b4b0b4800244ff480329c801a60a9
:105fd4009c710cf0abfa084b08492046012283f867
:105fe40038200bf04dffbde8104003f05fbd00bf4b
:105ff400e400002060e31600f8da0020a04000016d
:1060040000b50849c3b000200bf03aff032301a9ef
:10601400002205488df804300ef0a4fe43b05df86c
:1060240004fb00bfbc4000014c01002010b582b04d
:106034006946f0200ef078fb08b102b010bddde92e
:106044000023044c0449c4e90a230bf019ff02b0ed
:1060540010bd00bf08000020d84000010b4b93f88e
:106064003f0038b101280cd0022806d0084900208e
:106074000bf006bf07490bf003bf074900200bf0e4
:10608400ffbe064900200bf0fbbe00bf0800002045
:1060940058410001f440000138410001144100015d
:1060a40008b51c4900200bf0ebfe1b4b93f846305f
:1060b400052b28d8dfe803f0090f151b2103174926
:1060c4000020bde808400bf017bf15490020bde8cb
:1060d40008400bf011bf13490020bde808400bf045
:1060e4000bbf11490020bde808400bf005bf0f4964
:1060f4000020bde808400bf0ffbe0d490020bde8bc
:1061040008400bf0f9be0b490020bde808400bf035
:10611400f3be00bf7841000108000020d441000113
:106124008c4100019c410001ac410001b8410001d7
:10613400c4410001ec41000108b510f067fd03f013
:1061440061ff00b908bd03490020bde808400bf019
:10615400d3be00bffc41000108b5034900200bf089
:10616400cbfe002008bd00bf1442000130b583b04f
:1061740000248df8074003f0f3fc134b13489c8074
:106184004ff080711960124d9c710cf0cff9114bd6
:1061940011490122204683f858200bf071fe234652
:1061a400aa690e480df1070107f0aefbe860013063
:1061b40003d003f07bfc03b030bd204608490bf04c
:1061c4009bfe03b030bd00bfe400002060e3160076
:1061d400c8000020f8da002028420001e9980001f4
:1061e40044420001704700bf704700bf704700bfc2
:1061f4000448372100f50d7300f5137200f515708e
:1062040005f07eb82840000138b50d461049044613
:1062140011f0f3fa90b10f49204611f0eefa68b18b
:106224000d49204611f0e9fa20b120460b4911f03e
:10623400e4fa30b900232b70012038bd0120287006
:1062440038bd074900200bf057fe002038bd00bfc1
:1062540010450001184500012045000128450001b2
:106264003045000170b5144c82b000230d46102255
:1062740001a92360064611f0fdfa23682bb9019b9e
:106284001b7813b980b2ff2806d900200b490bf004
:1062940033fe002002b070bd01a93046102211f077
:1062a400e9fa2368c0b21bb92870012002b070bd9e
:1062b400fff752ffeee700bf8cdd0020144200011f
:1062c40070b5144c82b000230d460a2201a9236044
:1062d400064611f0cffa23682bb9019b1b7813b93a
:1062e40080b2ff2806d900200b490bf005fe0020e0
:1062f40002b070bd01a930460a2211f0bbfa23682e
:10630400c0b21bb92870012002b070bdfff724ff92
:10631400eee700bf8cdd00201442000130b50b4cc9
:1063240083b000230d460a2201a9236011f0a2faca
:10633400236833b9019b1b781bb92870012003b073
:1063440030bdfff709ff03b030bd00bf8cdd002076
:1063540070b5144c82b000230e460a2201a92360b2
:10636400054611f07dfa23682bb9019b1b7813b9fc
:10637400b0f5803f06d300200b490bf0bdfd002093
:1063840002b070bd01a928460a2211f069fa2368f7
:1063940080b21bb93080012002b070bdfff7dcfe73
:1063a400eee700bf8cdd00201442000170b5144cf0
:1063b40082b000230e46102201a92360054611f085
:1063c4004ffa23682bb9019b1b7813b9b0f5803fb2
:1063d40006d300200b490bf08ffd002002b070bde6
:1063e40001a92846102211f03bfa236880b21bb998
:1063f4003080012002b070bdfff7aefeeee700bfb3
:106404008cdd00201442000170b5124c82b00023d0
:106414000e460a2201a92360054611f021fa2368d9
:1064240013b9019b1b7833b100200b490bf064fdb9
:10643400002002b070bd01a928460a2211f010fa0a
:1064440023681bb93060012002b070bdfff784fee1
:10645400efe700bf8cdd00201442000108b550684e
:106464000649fff7d1ff00b908bd054b05499a69f4
:106474000020bde808400bf003bd00bfe000002091
:10648400c80000206c450001012906dd08b55068ec
:106494001149fff7b9ff20b908bd104900200bf0de
:1064a400efbc0f4b0f491a6900200bf0e9fc03f015
:1064b40057fb0d4a0d4800234ff4807193801160ff
:1064c40093710cf033f80a4b012283f87820bde86d
:1064d400084003f0ebba00bfd80000209445000147
:1064e400c8000020ac450001e400002060e3160071
:1064f400f8da0020012906dd38b550680e49fff7a7
:1065040083ff20b938bd0d4900200bf0b9bc0c4bfa
:1065140000241c7003f024fb0a4b0b489c800125cb
:106524001d609c710cf002f8084b83f89850bde88c
:10653400384003f0bbba00bfdc00002094450001e2
:1065440000000020e400002060e31600f8da0020d8
:1065540030b50b4c83b000230d46102201a92360f3
:1065640011f040f923683bb9019b1b7823b9c5e9b5
:106574000001012003b030bdfff7eefd03b030bdd4
:106584008cdd002010b550680649fff7e1ff00b923
:1065940010bd054b0549d3e91a230020bde810407e
:1065a4000bf06ebc7000002008000020c445000100
:1065b400f0b585b050680023002202a9cde902237a
:1065c400fff7c6ff08b905b0f0bddde9022369464f
:1065d400f020cde900230bf0e1f804460028f2d1c5
:1065e40002a9f0200ef0a0f8dde90267074b084d80
:1065f4000849c3e90067204632463b46c5e90a67b5
:10660400c5e902670bf03cfc05b0f0bd7800002042
:1066140008000020d840000130b50d4c83b00023a1
:106624000d460a2201a9236011f0dcf823683bb966
:10663400019b1b7823b9c5e90001012003b030bddb
:10664400044900200bf058fc002003b030bd00bf0b
:106654008cdd002014420001862824d00bd98a281e
:1066640025d012d98c2826d029d38d282bd1234983
:1066740000200bf005bc822829d00dd984282ad00b
:106684002dd81f4900200bf0fbbb88282bd02ed817
:106694001c4900200bf0f4bb68b3812813d11a49bc
:1066a40000200bf0edbb194900200bf0e9bb1849a1
:1066b40000200bf0e5bb174900200bf0e1bb1649a5
:1066c40000200bf0ddbb154900200bf0d9bb1449a9
:1066d40000200bf0d5bb134900200bf0d1bb1249ad
:1066e40000200bf0cdbb114900200bf0c9bb1049b1
:1066f40000200bf0c5bb0f490bf0c2bb10470001d3
:10670400304600017c460001084600017046000145
:10671400d046000100470001e8460001304700016f
:106724001c460001484600016046000194460001f1
:10673400b0460001f845000108b5054900200bf0fa
:106744009ffb10f0cdfebde80840fff785bf00bffa
:106754004847000100b583b000230df1070159201b
:106764008df807300df0e0ff50b9084b9df8072075
:10677400074983f842200bf083fb03b05df804fb68
:10678400fff76aff03b05df804fb00bf08000020b8
:106794006047000130b583b0694602200df0c4ffa4
:1067a40090b90b4c0b4994f9212005460bf068fb7a
:1067b40028469df8002008490bf062fb9df8003044
:1067c40084f8223003b030bdfff746ff03b030bd7c
:1067d40008000020784700019847000100b583b005
:1067e400694653200df0a0ff48b9074bbdf80020bf
:1067f4000649da800bf044fb03b05df804fbfff7b5
:106804002bff03b05df804fb08000020ac47000137
:1068140010b582b0694650200df086ff0446fff79c
:106824001bff204654b9bdf8002006490bf028fb95
:10683400054bbdf800205a8002b010bdfff70cffd5
:1068440002b010bdc84700010800002010b582b096
:106854000df1070104200df067ff0446fff7fcfe6d
:10686400204654b99df8072006490bf009fb064b56
:106874009df807205a7002b010bdfff7edfe02b07c
:1068840010bd00bfdc4700010800002010b582b035
:10689400694600200df048ff0446fff7ddfe204660
:1068a40054b99df8002006490bf0eafa054b9df80f
:1068b40000201a7002b010bdfff7cefe02b010bd6a
:1068c400f44700010800002008b5054900200bf03a
:1068d400d7fa0ef07bfcbde80840fff7bdbe00bf51
:1068e4000c480001083818282ad8dfe800f01129dc
:1068f40029292929291529191d2929292129292540
:106904002929292929290d000f4900200bf0b8ba9b
:106914000e4900200bf0b4ba0d4900200bf0b0bab8
:106924000c4900200bf0acba0b4900200bf0a8babc
:106934000a4900200bf0a4ba094900200bf0a0bac0
:10694400084900200bf09cba7c480001244800014f
:106954006c4800014c4800015c48000134480001c7
:10696400404800019448000108b510f0b9febde8a4
:106974000840fff7b7bf00bf014900200bf080ba01
:10698400a848000110b5044602462e490020013ce7
:106994000bf076fa0b2c4fd8dfe804f00c12181e1b
:1069a400242a30363c42480627490020bde81040de
:1069b4000bf066ba25490020bde810400bf060ba20
:1069c40023490020bde810400bf05aba21490020a9
:1069d400bde810400bf054ba1f490020bde8104038
:1069e4000bf04eba1d490020bde810400bf048ba28
:1069f4001b490020bde810400bf042ba19490020a1
:106a0400bde810400bf03cba17490020bde8104027
:106a14000bf036ba15490020bde810400bf030ba2f
:106a240013490020bde810400bf02aba1149002098
:106a3400bde810400bf024ba0f490020bde8104017
:106a44000bf01ebab448000194490001bc4800018f
:106a5400d0480001e4480001f8480001144900014d
:106a640030490001444900015c49000168490001c2
:106a74007849000188490001a049000100b50123bb
:106a840083b099428df807301add50680df1070183
:106a9400fff716fc10b903b05df804fb9df807007e
:106aa40010f0e8fb0028f6d19df80730012b0dd03b
:106ab400002bf0d107490bf01ffa03b05df804fb7b
:106ac4000320fff75fff03b05df804fb02490bf0fe
:106ad40013fae0e7e8490001b0490001f0b585b0d8
:106ae40000240026002703298df80540adf8064050
:106af400cde902671cdd0df1050150681546fff76d
:106b0400dffb40b19df80520531e012b15d820460c
:106b140026490bf0b5f90df10601a868fff746fc0c
:106b240080bbe86802a9fff713fd58b905b0f0bdb2
:106b34000320fff727ff05b0f0bd0520fff722ff74
:106b440005b0f0bd1a491b4c00200bf099f99df8d3
:106b540005301949dde9026703eb830304ebc30342
:106b6400c3e9006700203b4632460bf089f99df8e3
:106b7400053003eb830304ebc304012384f82030c2
:106b840005b0f0bd0d4900200bf07af99df80530f1
:106b9400084abdf80640084903eb830302ebc3032c
:106ba400002022461c810bf06bf9bae71c4a000155
:106bb400584a000178000020504a0001384a000178
:106bc4002de9f04182b000230129adf806304dddf6
:106bd40050680df10601fff7bbfb002843d0bdf858
:106be4000620012a01d9ff2a4cd14b4900200bf081
:106bf40047f9bdf80630ff2b48d0dbb2474c03eb16
:106c0400830304ebc30494f82000002834d04449df
:106c140000200bf071f9bdf80620424900200bf06a
:106c24002ff92289404900200bf02af9e27a3d49e4
:106c340000200bf025f994f90a203a4900200bf0c2
:106c44001ff9d4e90423394900200bf019f9d4e9d8
:106c54000623364900200bf013f9d4e90023344904
:106c640000200bf00df902b0bde8f0810320fff71e
:106c740089fe02b0bde8f0812e490bf03df902b067
:106c8400bde8f0810520fff77dfeece7254d234ca0
:106c9400a5f13c0100200bf02ff994f8203005f108
:106ca400040805f10c0700263bb92834002edad17c
:106cb40094f820300126002bf7d0324629460020d4
:106cc4000bf0def82289414600200bf0d9f8e27a75
:106cd400294600200bf0d4f894f90a202946002014
:106ce4000bf0cef8d4e90423394600200bf0c8f8a1
:106cf400d4e90623394600200bf0c2f8d4e9002376
:106d04000b4900200bf0bcf80b4900200bf0f4f801
:106d14000a480bf00bfcc8e71c4a0001780000206d
:106d24006c4a0001a84a0001ac4a0001b44a0001bf
:106d3400bc4a0001c04a0001dc4a000160e31600bd
:106d440000b5012983b015dd50680df10701fff787
:106d54005bfa10b903b05df804fb094900200bf09d
:106d64008ff89df807000ff047fafff775fc03b0a2
:106d74005df804fb0320fff705fe03b05df804fb98
:106d8400e04a000130b583b000230c4615468df867
:106d940007300ef01bfae0b9012c1cdd68680df118
:106da4000701fff78dfa18b19df807300e2b1ed896
:106db4001149124d00200bf063f89df8070085f887
:106dc4003b000ef0a3f9044685f83c00fff744fcb1
:106dd40034b103b030bd0320fff7d4fd03b030bda0
:106de4002a78074920460bf04bf803b030bd052044
:106df400fff7c8fdede700bff44a000108000020da
:106e04001c4b000110b584b0002301298df8073014
:106e140043dd50680df10701fff724fa18b19df81e
:106e24000730f02b3ed8002020490bf029f89df8bc
:106e3400070068b1831e022b0ad9a0f14e03dbb20e
:106e44000b2b12d840f60b2222fa03f3db0708d5ea
:106e540002a90df069fc0446fff7fefb3cb19df866
:106e6400070053280ad0502808d004b010bd20468b
:106e74009df808200e490bf003f8f0e702a90df085
:106e840053fc0446fff7e8fb002ceed12046bdf886
:106e9400082007490af0f4ffe7e70320fff772fd33
:106ea40004b010bd0520fff76dfddee7644b000163
:106eb400844b000110b582b0002401298df80740ed
:106ec4001fdd50680df10701fff7faf9b8b19df81d
:106ed4000730052b1ad81f4a1f4982f8463020462e
:106ee4000af0ceff9df80730052b04d8dfe803f045
:106ef400181d22272c13194900200af0fdff02b0a7
:106f040010bd0320fff73efd02b010bd0520fff7c2
:106f140039fd02b010bd124900200af0edffeee782
:106f2400104900200af0e8ffe9e70f4900200af0c1
:106f3400e3ffe4e70d4900200af0deffdfe70c4938
:106f440000200af0d9ffdae70a4900200af0d4ff4a
:106f5400d5e700bf08000020a44b0001ec4100016c
:106f6400d44100018c4100019c410001ac4100016d
:106f7400b8410001c441000100b5012383b0994226
:106f84008df8073012dd50680df10701fff73cf969
:106f940010b903b05df804fb9df8070010f0e0f9a8
:106fa4000028f6d104490af0a7fff2e70320fff70f
:106fb400e9fc03b05df804fbb84b000100b583b0f5
:106fc400032001298df8070017dd50680df1070132
:106fd400fff776f968b19df807000f280cd80ff079
:106fe4004fff30b90df1070107200df0c9fffff77e
:106ff40033fb03b05df804fb0520fff7c3fc03b0cb
:107004005df804fb00b5012983b015dd50680df16e
:107014000701fff7f9f810b903b05df804fb09495b
:1070240000200af02dff9df807000ff019f9fff773
:1070340059fc03b05df804fb0320fff7a3fc03b085
:107044005df804fbfc4b000110b5012982b014dd8e
:1070540050680df10701fff7d7f808b902b010bd69
:107064009df80740074900200af00aff20460ff068
:1070740039fcfff7f1fa02b010bd0320fff782fce0
:1070840002b010bd404c000110b584b000240129a9
:107094008df807401add50680df10701fff710f96c
:1070a40090b19df80720a2f10b030f2b1bd81049b8
:1070b40020460af0e5fe9df807308df8083020469a
:1070c40002a90af06bfb30b104b010bd0320fff736
:1070d40059fc04b010bd07490af0d2fe0ef0d2fcf0
:1070e400fff7bafaf0e70520fff74cfc04b010bd37
:1070f400644c0001844c000130b583b000200123ae
:1071040002298df806008df8073017dd0df1060110
:1071140050681446fff7d4f870b19df80650012d5d
:1071240011d8a0680df10701fff76ef820b12846c9
:107134009df807100ef070fa03b030bd0320fff77e
:1071440021fc03b030bd0520fff71cfc03b030bdab
:1071540010b584b0002301298df8073023dd506871
:107164000df10701fff7acf89df8073018b1a3f152
:107174000b020f2a1cd802a900208df808300af04f
:107184000dfb0446fff768fa0cb104b010bd0df115
:10719400070120460df0c8fa70b10a4b9df807208c
:1071a4001a7004b010bd0320fff7ecfb04b010bd4f
:1071b4000520fff7e7fbe8e79df8072002490af0fe
:1071c4005ffeeae708000020f447000110b584b030
:1071d400002301298df807302add50680df10701dd
:1071e400fff76ef89df8073058b113f0fd0f08d083
:1071f400a3f11002012a04d90520fff7c3fb04b050
:1072040010bd02a904208df808300af0c7fa04461c
:10721400fff722fa002cf2d10df1070104200df042
:1072240083fa50b1084b9df807205a7004b010bd82
:107234000320fff7a7fb04b010bd9df80720034906
:107244000af01efeeee700bf08000020dc47000144
:1072540010b584b000230129adf806301fdd506855
:107264000df10601fff7a2f808b904b010bdbdf88e
:107274000630adf8083002a950200af08ffa04460f
:10728400fff7eaf9002cf0d10df1060150200df0c2
:107294004bfa48b1074bbdf806205a80e5e70320b6
:1072a400fff770fb04b010bdbdf8062002490af0d8
:1072b400e7fdefe7080000209c4c000130b583b0e7
:1072c40000240129adf806401cdd50680df10601cb
:1072d400fff76cf808b903b030bd0d4d0d496a8a4b
:1072e40020460af0cdfdbdf806200b496a822046ef
:1072f4000af0c6fd094b6a8a1a86012283f84820df
:1073040003b030bd0320fff73dfb03b030bd00bf29
:1073140008000020b04c0001dc4c00017800002083
:1073240010b582b0002401298df8074022dd506891
:107334000df10701fef7c4ff08b902b010bd2046e5
:107344009df8072010490af09bfd9df807200f4b7c
:1073540002eb820203ebc20393f8200078b1d3e975
:1073640000010b4a1b895382c2e90c01c2e90601e0
:1073740002b010bd0320fff705fb02b010bd0549a4
:107384000af07efdd9e700bf004d0001780000201f
:1073940008000020344d000130b5012983b04ff0be
:1073a40000044ff00005cde9004521dd5068694631
:1073b400fff7cef808b903b030bd104c1049d4e93a
:1073c400062300200af05cfddde900230d490020be
:1073d400c4e90c23c4e906230af052fdd4e90601ea
:1073e400094b0122c3e90a0183f8482003b030bde8
:1073f4000320fff7c7fa03b030bd00bf0800002028
:10740400b04c0001dc4c00017800002030b585b0a0
:1074140000240129adf806402add50680df106016b
:10742400fef7c4ff08b905b030bd154dbdf80630f0
:107434001449ea88adf8083020460af021fd02a973
:1074440053200af0abf9c0b90df1060153200df039
:107454006bf90028e7d1bdf806300b4ceb80012511
:107464000a4923811a4684f820500af009fddae714
:107474000320fff787fa05b030bdfff7edf8d2e738
:1074840008000020704d000178000020944d000198
:1074940000b583b0002301298df807301fdd506843
:1074a4000df10701fef70cff88b99df807001b4b8f
:1074b400d8b101282ad002281fd00322184983f802
:1074c4003f2000200af0dcfc03b05df804fb9df8cb
:1074d40007000328ebd90520fff754faf4e703204b
:1074e400fff750fa03b05df804fb0e4983f83f0040
:1074f4000af0c6fc03b05df804fb83f83f000a49b8
:1075040000200af0bdfc03b05df804fb83f83f00e3
:10751400064900200af0b4fcd6e700bf08000020aa
:1075240058410001f44000013841000114410001b8
:1075340030b585b0002401298df8074027dd506857
:107544000df10701fef7eafef8b19df9072002f1fb
:107554000c03dbb21a2b29d81e4d1f4985f82120b4
:1075640020460af08dfc95f9213013f1200f13da2f
:10757400202202a902208df808200af00ff9d0b9c0
:1075840002a902200df0d0f8d8b105b030bd032017
:10759400fff7f8f905b030bd1f2b10dc002bdab271
:1075a400e7da02f01f0242f02002e2e70520fff7cb
:1075b400e9f905b030bdfff74ff805b030bd1f2223
:1075c400d7e79df80820054985f822200af058fce1
:1075d400dbe700bf08000020b44d0001cc4d0001e2
:1075e40000b585b0002350688df807300df1070110
:1075f400fef766fe9df8073008b1072b1fd802a9d5
:1076040059208df808300af0c9f840b90df1070186
:1076140059200df089f838b105b05df804fbfff787
:107624001bf805b05df804fb084b9df807200849da
:1076340083f842200af024fc05b05df804fb052021
:10764400fff7a0f905b05df804fb00bf08000020b7
:10765400e84d000130b585b0002402298df80440be
:107664008df8054040f3af800df1020150681546d6
:10767400fef7f8fd002800f0a4809df80220f02a0f
:1076840000f2a68020465d490af0fafb9df802301c
:10769400002b44d0da1e012a41d9a3f14e02d2b202
:1076a4000b2a36d9022b40f08c800df10501a86815
:1076b400fef734fe50b39df805300c33dbb21a2bc1
:1076c40000f286804e4b4f4993f9212000200af0a6
:1076d400d7fb9df9052012f1200f7edb1f2a00f352
:1076e4008b80002ad3b203da03f01f0343f0200394
:1076f40002a99df802008df804308df808300af0d4
:107704004df80446fef7a8ff002c68d09df802301f
:107714002ae040f60b2121fa02f2d20724d50df11a
:107724000301a868fef79efdd0b19df80330322b0b
:107734004ed802a99df802008df808300af02ef800
:107744000446fef789ff5cb90df103019df80200c0
:107754000cf0eaff20b99df803202b490af090fbb6
:107764009df80230022ba0d0532b01d0502b28d1ee
:10777400a8680df10601fef7ebfd10b3bdf8062075
:10778400224900200af07cfb214900200af078fb02
:10779400bdf806309df80200adf8083002a909f0e2
:1077a400fdff0446fef758ff5cb90df106019df894
:1077b40002000cf0b9ff20b9bdf8062015490af003
:1077c4005ffb05b030bd0320fff7dcf805b030bd2a
:1077d4000520fff7d7f805b030bd202388e701a9bd
:1077e4009df802000cf0a0ff00288fd19df8042022
:1077f40009490af045fb89e71f2379e7044e000194
:1078040008000020404e0001204e0001744e00018b
:10781400984e0001bc4e00015c4e0001fc2804d0cf
:10782400fe2802d010b1fff7adb8704701490af045
:1078340027bb00bfa848000130b4084c9df808508d
:10784400207061709df80c009df81010a270e37018
:1078540065712071a17130bc704700bfe400002045
:1078640070b5744e96f8983082b0002b64d196f8b7
:107874007820002a36d196f83830002b40f08780e3
:10788400307e002840f0ad8096f85830002b51d05f
:10789400694b6a499a6986f858000af0f1fa68490e
:1078a4006848d1e91423c6e91223d1e91623d1e9a2
:1078b4001245c6e9142300220023c1e91623c1e9b5
:1078c4001223c1e91423c6e910450af02ffed6e9b4
:1078d4001401d6e91223cde90001d6e9100102f022
:1078e40007f827e01846584986f878300af004fb70
:1078f40053495448d1e91423c6e91a23d1e916237c
:10790400d1e91245c6e91c2300220023c1e916234c
:10791400c1e91223c1e91423c6e918450af006fe99
:10792400d6e91c01d6e91a23cde90001d6e91801ec
:1079340001f0deff02b070bd00231846434986f80b
:1079440098300af0d9fa3e493e48d1e91423c6e9f1
:107954002223d1e91623d1e91245c6e924230022c2
:107964000023c1e91623c1e91223c1e91423c6e99e
:1079740020450af0dbfdd6e92401d6e92223cde92e
:107984000001d6e9200101f0b3ff02b070bd10463a
:107994002f4986f838200af0affa29492948d1e955
:1079a4001423c6e90a23d1e91623d1e91245c6e90d
:1079b4000c2300220023c1e91623c1e91223c1e9e3
:1079c4001423c6e908450af0b1fdd6e90c01d6e94d
:1079d4000a23cde90001d6e9080101f089ff02b0cc
:1079e40070bd18461b4933760af086fa14491548c7
:1079f400d1e91423c6e90223d1e91623d1e91245ba
:107a0400c6e9042300220023c1e91623c1e9122395
:107a1400c1e91423c6e900450af088fdd6e904014a
:107a2400d6e90223cde90001d6e9000101f060ffa7
:107a340080e700bff8da0020c8000020844f00016e
:107a44000800002040420f00004f0001dc4e0001fe
:087a54002c4f00015c4f000102
:020000040000fa
:020000040100f9
:107a5c00f8b5214c2568626863680027064682f8f1
:107a6c005170181d0f460df05dff38b96268a368a0
:107a7c00d16a01228a4023ea0203a360731c14d04a
:107a8c006368ad195d6006d3206a6168bde8f84093
:107a9c0004310df02dbf606a616804310df028ffd0
:107aac00a36aab4288bfa562f8bd002fe8d023695a
:107abc006068626899688360d16060689d6861687d
:107acc006668e268043068600431013203489960ea
:107adc00e2607061f8bd00bf14d9002020d90020ed
:107aec0080b5144c144f4ff0805614e00af0f6ff9a
:107afc00e36bdd68281d0df015ff636c013b6364bf
:107b0c00e36a013be3620af0f9ff286b0af0cefb53
:107b1c0028460af0cbfbe36a002be7d1a36c012bc0
:107b2c0004d93e60bff34f8fbff36f8f0ef09efef4
:107b3c00f1e700bf14d9002004ed00e0024b5a6ab3
:107b4c00d26812689a62704714d900202de9f84364
:107b5c009500074628460e4698460af03bfb00283f
:107b6c0000f08c80814654200af034fb0446002837
:107b7c0000f08880542200210ff0b0fe2a46c4f891
:107b8c0030904846a5210ff0a9fe236b043d1d44ff
:107b9c0025f007056eb1731e04f133010f3613f88f
:107bac00012f01f8012f0ab1b342f8d1002384f858
:107bbc004330089e042e28bf042604f10409e66213
:107bcc00666448460df080fec6f1050604f1180007
:107bdc000df07afea661246164624246394628465d
:107bec000af04eff099b206003b11c60484d0af05f
:107bfc0075ff6b6c01336b646b68002b4fd0d5f841
:107c0c00e820e36a002a44d005f1480703eb83011e
:107c1c0089006818d5f808c0c26ca260012606fa63
:107c2c0003f343ea0c03ab609368e3609368d0f80a
:107c3c0048c0c3f804903944d5f8ec70c2f80890e9
:107c4c000ceb0602bb1961618264c5f8ec300af0da
:107c5c0055ffd5f8e83073b16a68e36ad26a9a4284
:107c6c0009d22c4b4ff080521a60bff34f8fbff3e9
:107c7c006f8f304600e03046bde8f8834ff0ff30a0
:107c8c00bde8f88348460af011fb4ff0ff30bde821
:107c9c00f8836a68d26a9a4298bf6c60b4e76c60e9
:107cac006b6c012b03d0e36a05f14807aee705f1d5
:107cbc00480738460df0fcfd05f15c000df0f8fdb1
:107ccc0005f170000df0f4fd05f184000df0f0fdf0
:107cdc0005f1ac0805f198000df0eafd05f1c006c0
:107cec0040460df0e5fd30460df0e2fd05f1d40007
:107cfc000df0defd05f130000df0dafd05f10c00a4
:107d0c000df0d6fdc5f82480e36a2e627ee700bf35
:107d1c0014d9002004ed00e070b505462b4c0af098
:107d2c00ddfe002d3fd02e1d30460df0fbfd30b991
:107d3c00ea6a02eb820304eb83039b6c5bb3ab6ad2
:107d4c001bb105f118000df0edfdd4f8ec306268b4
:107d5c000133aa42c4f8ec3030d0636c013b63644d
:107d6c00636a1b689bb1fff7e9fe0af0c7fe636804
:107d7c00ab4205d0286b0af099fa28460af096fa1d
:107d8c00d4f8e83013b16368ab420ed070bd4ff03d
:107d9c00ff33a362e9e7a368012101fa02f223eaa7
:107dac000202a260cbe76568bde7094b4ff0805239
:107dbc001a60bff34f8fbff36f8f70bd314605480c
:107dcc000df086fde36a0133e362cee714d900209f
:107ddc0004ed00e044d900202de9f041174c636814
:107dec0083421cd005460af079fe676a6e69d4f8a6
:107dfc0020800af083febe420ed046450cd004f122
:107e0c000c039e420ed03034a64215d0002e0cbf6f
:107e1c0004200120bde8f0810220bde8f0810020a3
:107e2c00bde8f081ab6a002bf6d195f85030012bf0
:107e3c000cbf02200320f0e70420eee714d9002049
:107e4c0010b504460af04afe24b1e46a0af056fe64
:107e5c00204610bd034b5c68e46a0af04ffe2046d6
:107e6c0010bd00bf14d90020eff311834ff0200296
:107e7c0082f31188bff36f8fbff34f8f18b1c06ab5
:107e8c0083f311887047034a5068c06a83f31188e2
:107e9c00704700bf14d9002004292de9f84328bfee
:107eac00042104460d460af019fe002c61d0636cc7
:107ebc00ab425ad0dff8cc800bd2d8f80420a242c7
:107ecc005ad0d8f80420d76aaf428cbf00270127bc
:107edc0005e0d8f804703f1bb7fa87f77f09e66a0c
:107eec006564b342a36908bfe562002ba4bfc5f16a
:107efc000505a561214d626906eb860305eb83033d
:107f0c009a4229d104f1040948460df00bfd40b901
:107f1c00d8f80830012202fa06f623ea0606c8f859
:107f2c000860e26ad8f8086002eb8201890008eb6d
:107f3c00010001239340c26c3343c8f808309368a6
:107f4c00e360836c9668a2600d440133c6f804901c
:107f5c00c2f80890656183643fb1094b4ff08052c1
:107f6c001a60bff34f8fbff36f8fbde8f8430af071
:107f7c00c5bd044b5c689ae70027b0e75cd90020cc
:107f8c0004ed00e014d900202de9f041224d6b687e
:107f9c0083420cd058b104460af0a0fd626905f189
:107fac000c039a4205d0bde8f0410af0a7bdbde82c
:107fbc00f081a36a05f1d4029342f4d0002bf2d1e4
:107fcc0004f1040840460df0adfce26aaf6802eb28
:107fdc00820080002e180123f16ca16093403b437a
:107fec008f68e760ab608b68b76cc3f8048005f1f1
:107ffc00480318440137c1f808806061b7646b68a6
:10800c00db6a9a42cfd3054b4ff080521a60bff314
:10801c004f8fbff36f8fc6e714d9002004ed00e03b
:10802c0030b5144d1449154883b005f1f003002404
:10803c00cde900434ff480722346fff787fd0128fa
:10804c0003d00f4b1b6803b030bd4ff0200383f3fc
:10805c001188bff36f8fbff34f8f4ff0ff33ab62bd
:10806c00c5f8e8002c600af0b1fd054b1b6803b0a5
:10807c0030bd00bf14d90020a8790101ed7a0001b0
:10808c00e0dd00204ff0200383f31188bff36f8fe6
:10809c00bff34f8f024b0022c3f8e8200af01cbd3f
:1080ac0014d90020034ad2f8f4300133c2f8f4306a
:1080bc00704700bf14d90020014b1868704700bfef
:1080cc0014d90020014b1868704700bf14d9002048
:1080dc00014b586c704700bf14d9002008b13430e4
:1080ec007047024b58683430704700bf14d90020d9
:1080fc002de9f04f564cd4f8f43083b0002b40f0ff
:10810c00908020680130206080b9636a226a6262c4
:10811c002362d4f8f8300133c4f8f830636a1b6872
:10812c00002b40f08a804ff0ff33a362a36a984281
:10813c004ff000065cd3dff81c81b4464ff0010e03
:10814c004fe0636adb68db685a68904203f1040510
:10815c0003f118097ad35a69d3e90271d2f804a051
:10816c00b960aa454f60176808bf5160996ac3f897
:10817c0014c0013f176071b1d3e90772d1f804a0a4
:10818c00ba601a6aca45576008bf4a600a68c3f8e1
:10819c0028c0013a0a60d96aa76801eb81029200f3
:1081ac0004eb02090efa01fbd9f84ca0c3f808a0a5
:1081bc004bea0707a760daf80870df604244d9f889
:1081cc0048700192daf8082001375560019acaf814
:1081dc0008505a61c9f848706368db6a994288bfd5
:1081ec000126636a1b68002babd14ff0ff33a362ef
:1081fc006368db6a03eb830304eb83039a6cd4f8a8
:10820c00fc30022a28bf012643b1d4f80031002be0
:10821c0018bf0126304603b0bde8f08f0ef028fbe6
:10822c00f3e7d4f8fc300133c4f8fc300ef020fb3b
:10823c000026304603b0bde8f08ffff77ffca36a41
:10824c0098424ff00006bff476afd1e7a262cfe7b9
:10825c0014d900205cd900202de9f047454c0af0d8
:10826c003dfcd4f8f430013bc4f8f430d4f8f430cd
:10827c00002b67d1626c002a64d09e464ff0010a35
:10828c0004f1480cd4f8d420002a44d0d4f8e030bf
:10829c00db68d9691d6a9a6a8d60186a56684160f4
:1082ac0003f118018e42116808bf55600139c3f8fb
:1082bc0028e011605869d3e9021245688a6003f11d
:1082cc0004085160d96a0668454508bf426001eb55
:1082dc0081029200013e0660a518a668e86c9860c1
:1082ec000afa01f949ea0606a6608668de60ae6cf9
:1082fc00876862440136c7f80480c0f808805a6168
:10830c00ae646268d26a9142bcd3c4f800a1d4f8be
:10831c00d420002abad12bb1636a1b6833bb4ff04f
:10832c00ff33a362d4f8fc504db10126fff7e0fef9
:10833c0008b1c4f80061013df8d1c4f8fc50d4f880
:10834c0000312bb900240af0d9fb2046bde8f08798
:10835c00094b4ff080521a60bff34f8fbff36f8ff2
:10836c0001240af0cbfb2046bde8f087fff7e6fbc3
:10837c00d8e700bf14d9002004ed00e0134ad2f86e
:10838c00f430013310b5c2f8f4300368146859188e
:10839c002cbf01220022a34201600ed972b9002425
:1083ac00fff75aff38b90a4b4ff080521a60bff3ef
:1083bc004f8fbff36f8f204610bd0ab98c42eed29f
:1083cc00081b0021fff744fb0124e9e714d9002026
:1083dc0004ed00e008b540b90b4b4ff080521a6029
:1083ec00bff34f8fbff36f8f08bd084ad2f8f4303c
:1083fc000133c2f8f4300021fff72afbfff72cff02
:10840c000028e9d008bd00bf04ed00e014d900201d
:10841c0038b50a4cd4f8f42001320546c4f8f420df
:10842c000af05cfbd4f8fc302b44c4f8fc300af0a6
:10843c0065fbbde83840fff70fbf00bf14d9002023
:10844c002de9f041294cd4f8f4300133c4f8f43060
:10845c000546fff7c1fc022805d00024fff7fcfeff
:10846c002046bde8f0812e1d30460df05bfa0af077
:10847c0035fbab6a33b105f118000df053fa01234b
:10848c0085f851300af03afbea6ad4f80880dff834
:10849c0060e002eb8200800004eb000c0123dcf8ae
:1084ac004c10a96003fa02f747ea0807a7608f6827
:1084bc00ef60dcf84870864488681f4446608e6024
:1084cc00c5f814e0ccf848706168c96a8a4207d9cb
:1084dc00c4f800311c46fff7bffe2046bde8f08112
:1084ec001c46fff7b9fe2046bde8f08114d90020e8
:1084fc005cd9002010b51c4cd4f8f4301bb101230e
:10850c00c4f8003110bdc4f8003163681b6b1a68e5
:10851c00b2f1a53f03d15a68b2f1a53f1ad06068f9
:10852c00616834310ef08ef9a368b3fa83f3dbb2d1
:10853c00c3f11f0303eb83039b00e1180b48ca6cc8
:10854c005268ca6403449a4204bf5268ca64d3682e
:10855c00636010bd9a68b2f1a53fe0d1db68b3f15e
:10856c00a53fdcd1e0e700bf14d9002064d900207e
:10857c0070b504462c4d0af0b1fa002c40d0261de3
:10858c0030460df0cff930b9e26a02eb820305eb0d
:10859c0083039b6c13b3a36a1bb104f118000df099
:1085ac00c1f9314621480df093f994f85030012b64
:1085bc0004bf002384f850300af0a0fad5f8e83054
:1085cc00a3b96b68a34200d070bdd5f8e830ebb905
:1085dc00e9686a6c914222d16b6070bdab68012175
:1085ec0001fa02f223ea0203ab60d4e70af076fa4e
:1085fc006b6a1b6833b1fff7a1fa0af07ffae0e768
:10860c006c68bce74ff0ff33ab62f6e7084b4ff0fa
:10861c0080521a60bff34f8fbff36f8f70bdbde8f0
:10862c007040fff767bf00bf14d9002020d900208d
:10863c0004ed00e010b5064b5b680c4603f1180125
:10864c000df056f920460121bde81040fff700baa5
:10865c0014d900200e4bf0b445685f685e68044680
:10866c0041f000415868b961a9685f68f561016221
:10867c0059685e6823681046aa68183718310133a8
:10868c005760a960b46201212360f0bcfff7e0b928
:10869c0014d90020c368db68996ad3e90702f0b5e6
:1086ac004d68826003f1180450600868a54208bf49
:1086bc004a600138254a00259d620860d2f8f40012
:1086cc00d96a002830d19c685869dd68a560466875
:1086dc00dd68dff87ce06c6003f1040c046866452f
:1086ec0008bf456001eb8105ad00013c04605619e3
:1086fc009768f46c9c600120884038439060a768b0
:10870c00b06cdf60a76875440130c7f804c0c4f8ca
:10871c0008c05d61b0645368db6a8b423abf0120cc
:10872c00c2f800010020f0bdd2f8d800d8618568ed
:10873c001d628668d2f8d4507460013502f1d406fb
:10874c008460c2f8d4509e62e5e700bf14d90020c3
:10875c005cd900202de9f041446802698568c36842
:10876c0041f000410160a560816855684c6085420c
:10877c004ff0000408bf51601168046158699c688f
:10878c00dd68013911604168a56003f1040eda68f7
:10879c00066854607145d96a08bf426001eb8104d8
:1087ac00114aa400013e066015199768e86c9860a0
:1087bc004ff0010808fa01f63e4396608668de60c9
:1087cc00ae6c876802f1480c64444644c7f804e078
:1087dc00c0f808e05c61ae645368db6a994288bffc
:1087ec00c2f80081bde8f08114d9002010b5044610
:1087fc000af074f9044bd3f8f8201b68c4e9002381
:10880c00bde810400af07ab914d90020034bd3f814
:10881c00f8201b68c0e90023704700bf14d9002062
:10882c00f8b505460c460af059f91b4a106853680e
:10883c0093f8513043b15368002283f8512001243e
:10884c000af05cf92046f8bd21684e1c1ed0d5e913
:10885c000073d2f8f860b74208d0834206d80023e0
:10886c00236001240af04af92046f8bdc61ab14229
:10887c00f5d9091a1944d2f8f80013682160c5e932
:10888c00000300240af03af92046f8bd1c460af011
:10889c0035f92046f8bd00bf14d90020024b012247
:1088ac00c3f80021704700bf14d90020014b586851
:1088bc00704700bf14d9002018b3f8b5284cc36a10
:1088cc006268d26a934214d28269002a04db62681d
:1088dc00d26ac2f105028261224d426903eb830325
:1088ec0005eb83039a420dd06368db6ac3620120f7
:1088fc00f8bd6368406cdb6a98422cbf00200120f5
:10890c00f8bd7047071d064638460df00bf830b918
:10891c00f16aa36801228a4023ea0203a360636818
:10892c00d4f808e0db6af36203eb8301890004eb03
:10893c00010c0120dcf84c20b26000fa03f343ea8e
:10894c000e03a3609368dcf84840f36093680d4411
:10895c0004445f6097607561ccf84840f8bd00bf77
:10896c0014d900205cd9002038b1836cc16a426ce8
:10897c00013b9142836400d00bb1002070472de97c
:10898c00f04100f10408044640460cf0cbff164db4
:10899c0030b9e16aab6801228a4023ea0203ab607a
:1089ac00636cd5f808e0dff844c0e36203eb8301a5
:1089bc0089006e180120f26c9768e76000fa03f7e3
:1089cc0047ea0e07af60b56c9768a2606144c3f1cb
:1089dc0005030544a361c7f80480c2f808806161ef
:1089ec00b564bde8f08100bf14d900205cd900202b
:1089fc0058b1426cf8b59142c36a38bf11468b42ec
:108a0c0002d0826c012a01d0f8bd704782691b4ddf
:108a1c00c162002a03eb8303426905f14806a8bf33
:108a2c00c1f1050106eb8303a8bf81619a42ebd12a
:108a3c00071d044638460cf075ffe36ab8b10121f6
:108a4c00994003eb83039b00e818d5f808c0c26c6f
:108a5c00a2604cea0101a9609168856ce1609168a3
:108a6c001e4401354f60976066618564f8bdaa6845
:108a7c000121994022ea0102aa60e2e714d9002000
:108a8c00044a516853685268db6a8869c3f105036c
:108a9c009361704714d90020044b5a681ab1596875
:108aac008a6c01328a645868704700bf14d9002060
:108abc002de9f0411f4d06460f4690460af00ef880
:108acc006b6806f1120403eb84035b683bb96b68bb
:108adc003344012183f85010b8f1000f1ed10af075
:108aec000df809f0fbff6b68a4002344d3f8048055
:108afc00b8f1000f04d06b681c445fb100236360b5
:108b0c006b683344002283f8502009f0f7ff40468d
:108b1c00bde8f08108f1ff336360f1e74046fef7f2
:108b2c0097ff054b4ff080521a60bff34f8fbff386
:108b3c006f8fd4e714d9002004ed00e02de9f0414b
:108b4c00264d04461f468846164609f0c7ff6b683b
:108b5c00234493f85030022b0dd06b6803eb840345
:108b6c000121da6c22ea0802da646b68234483f888
:108b7c005010069be3b909f0c1ff09f0afff37b104
:108b8c006b6804f1120203eb82035b683b606b6859
:108b9c00234493f85030022b16d000276b681c44ea
:108bac00002384f8503009f0a9ff3846bde8f08165
:108bbc001846fef74dff0a4b4ff080521a60bff378
:108bcc004f8fbff36f8fd6e76b6803eb84030127de
:108bdc00da6c22ea0606de64e0e700bf14d9002056
:108bec0004ed00e02de9f843ddf8208004460d4645
:108bfc0017461e4609f072ffb8f1000f06d005f1ba
:108c0c00120304eb83035b68c8f80030621902217d
:108c1c0092f8500082f85010731ec0b2032b08d883
:108c2c00dfe803f0025a110f04eb8505eb6c1f43d0
:108c3c00ef6401280dd0012409f060ff2046bde847
:108c4c00f88302284ed0123504eb850501286f609d
:108c5c00f1d16169a368e2689a604868e26804f13e
:108c6c0004084045536008bf4a60e26a08681e4b1e
:108c7c0002eb8205ad00013808605e19d3f808c01c
:108c8c00f16ca1604ff0010909fa02f747ea0c07f1
:108c9c009f608f68d6f848c0e760886803f1480e7b
:108cac000eeb05070ceb0905c0f80480c1f8088031
:108cbc006761b5645b68db6a9a42bcd90b4b4ff0b9
:108ccc0080521a60bff34f8fbff36f8f4c4609f081
:108cdc0015ff2046bde8f88304eb8505eb6c0133ea
:108cec00eb64a6e70024a7e714d9002004ed00e00c
:108cfc002de9f041069deff311864ff0200484f32b
:108d0c001188bff36f8fbff34f8f2db101f1120498
:108d1c0000eb840464682c604418022794f85050cb
:108d2c0084f85070013bedb2032b08d8dfe803f058
:108d3c00023d100e00eb8101cb6c1a43ca64012d6d
:108d4c000cd0012086f31188bde8f081022d5fd094
:108d5c00123100eb8101012d4a60f2d12d4bc26a18
:108d6c00d3f8f41039b3d3f8d810c1618c6804620d
:108d7c008d68d3f8d44000f118076f60013403f10b
:108d8c00d4058f60c3f8d44085625968c96a914292
:108d9c00d7d2079a12b1079901220a600120c3f8b1
:108dac00000186f31188bde8f08100eb8101cb6cea
:108dbc000133cb64c3e784684169c568a5604f681b
:108dcc00c568dff854e06c6000f104080c68474596
:108ddc0008bf4d6002eb8205ad00013c0c6003eb5b
:108dec00050c9f68dcf84c408460012191403943ac
:108dfc009960a768c760dcf84870a16875440137b2
:108e0c00c1f80480c4f808804561ccf84870bce710
:108e1c00002097e714d900205cd900202de9f043fd
:108e2c00eff311844ff0200383f31188bff36f8f9e
:108e3c00bff34f8f4318022600eb810193f850507b
:108e4c0083f85060cb6c012d03f10103cb6403d08c
:108e5c0084f31188bde8f0832b4bc16ad3f8f4502e
:108e6c000db3d3f8d850c561ae680662af68d3f8bd
:108e7c00d46000f1180cc7f804c0013603f1d40714
:108e8c00c5f808c0c3f8d46087625868c06a8842c5
:108e9c00ded20ab1012111600122c3f8002184f352
:108eac001188bde8f0838668c7684569b760c768f4
:108ebc00d5f804c07e6000f104092e68dff84c8000
:108ecc00cc4501eb810c4fea8c0c06f1ff362e6081
:108edc0003eb0c0e08bf6f609f68def84c60866079
:108eec0001258d403d439d60b768c760def8487032
:108efc00b568c4440137c5f80490c6f80890c0f8aa
:108f0c0014c0cef84870c0e714d900205cd90020fa
:108f1c0038b50d4680b104462c4409f0dffd94f8b9
:108f2c005030022b05bf002384f85030002401245c
:108f3c0009f0e4fd204638bd014b5c68ece700bf4e
:108f4c0014d9002070b50e46154668b1044609f0d8
:108f5c00c5fd04eb8601cc6ccb6c23ea0503cb641a
:108f6c0009f0ccfd204670bd014b5c68efe700bffb
:048f7c0014d90020e4
:020000040000fa
:020000040100f9
:108f800000b5c3b00a2301a9002204488df80430bb
:108f90000bf0eafe43b05df804fb00bf4c0100207b
:108fa00000b5c3b00b2301a9002204488df804309a
:108fb0000bf0dafe43b05df804fb00bf4c0100206b
:108fc00010b5012082b00ef059f8012469465120f5
:108fd0008df8004008f0e4fb20460df043f9fdf762
:108fe00083fc02b010bd00bf70b505460c490020df
:108ff00008f084ff6b7863b10a4e01242b193146c7
:109000005a78002008f03eff01346b78e4b2a342a6
:10901000f4d203490020bde8704008f06fbf00bfe4
:10902000382c01013c2c01010f282de9f0473ad0e2
:109030003d4c00eb800304ebc304054694f820008c
:1090400060b33a49002008f059ff2a463849002009
:1090500008f018ff22893749002008f013ffe27a50
:109060003349002008f00eff94f90a20304900200f
:1090700008f008ffd4e904232f49002008f002ff7c
:10908000d4e906232c49002008f0fcfed4e9002393
:109090002a490020bde8f04708f0f4be2849bde8a1
:1090a000f04708f02bbf204f214d3c46a5f13c0175
:1090b000002008f023ff94f8203005f1040905f1a1
:1090c0000c08002643b928340eb1bde8f08794f8a7
:1090d00020300126002bf6d032462946002008f029
:1090e000d1fe22894946002008f0ccfee27a2946ca
:1090f000002008f0c7fe94f90a202946002008f055
:10910000c1fed7e90e234146002008f0bbfed7e997
:1091100010234146002008f0b5fed4e9002307499a
:10912000002008f0affecee778000020402c0101bf
:109130007c2c0101802c0101882c0101902c010163
:10914000942c010130b4084b0a89d1e9004500eba9
:10915000800003ebc0000123c0e90045028180f8d4
:10916000203030bc704700bf7800002070b582b05e
:10917000c388adf8003004466946532008f010fb60
:10918000002840f02781694653200bf0cffa18b928
:10919000984bbdf80020da806388adf8003069464e
:1091a000502008f0fdfa002840f014816946502054
:1091b0000bf0bcfa18b98f4bbdf800205a8094f818
:1091c0003d300d2b00f20d81694603208df80030f3
:1091d00008f0e6fa002840f0fd80694603200bf015
:1091e000a5fa20b9834b9df8002083f83d20237811
:1091f000a3f10b020f2a00f2f480694600208df8db
:10920000003008f0cdfa002840f0e48069460bf009
:109210008dfa18b9774b9df800201a70637813f017
:10922000fd0f04d0a3f11002012a00f2da80694692
:1092300004208df8003008f0b3fa002840f0ca800e
:10924000694604200bf072fa18b96a4b9df80020a9
:109250005a70d4e90a236946f020cde9002308f0ca
:109260009ffa002840f0b6806946f0200bf05efac5
:1092700030b9dde900015f4bc3e90a01c3e902012e
:1092800094f84330da1e052a00f2ab806946572075
:109290008df8003008f084fa002840f09b80694681
:1092a00057200bf043fa20b9524b9df8002083f869
:1092b000432094f84430032b00f2938069464f20fa
:1092c0008df8003008f06cfa002840f08380694681
:1092d0004f200bf02bfa20b9464b9df8002083f865
:1092e000442094f9212002f10c03dbb21a2b78d828
:1092f000404d85f8212094f9212012f1200f75dbd3
:109300001f2a75dc002ad3b203da03f01f0343f0ef
:109310002003694602208df8003008f041fa002849
:1093200058d1694602200bf001fa18b99df80030b7
:1093300085f8223094f83f3085f83f3094f83b3080
:10934000618a85f83b30d4e90c2394f84260698245
:10935000072ec5e90c2344d8694659208df80060d2
:1093600008f01efab0bb694659200bf0dff918b9b6
:109370009df8003085f8423094f841308df8003087
:109380006946512008f00cfa20bb694651200bf0c9
:10939000cdf918b99df8003085f8413094f8403087
:1093a000052b1ed869464e208df8003008f0f8f9dc
:1093b00080b969464e200bf0b9f918b99df8003014
:1093c00085f840300c4b94f8452085f845200a205c
:1093d000187004e0fdf742f9074b0b20187002b03b
:1093e00070bd054b0c20187002b070bd202390e7b3
:1093f0001f238ee70800002098c600202de9f843bf
:10940000584cdff86c8194f847c09df820709df8a7
:1094100024609df828508c445ffa8cfca8eb01086e
:1094200059b1013950fa81f9013808f1ff3110f8ca
:1094300001ef01f801ef4845f9d1217c022900f044
:109440008180d4e902190cf1060ca8f1080ea8f1ec
:1094500009005ffa8cfc08f1ff3800f8011f090ac7
:10946000804541ea09614fea1929f6d14ff4404895
:1094700094f82010022952d0aef10809002f45d0ef
:10948000394902eb8202d20088188a584768c4e939
:1094900006270cf1060caef109005ffa8cfc0ef108
:1094a000ff3e00f8012f120a704542ea07624feab8
:1094b0001727f6d148f44468fe2209f8033cca2372
:1094c00009f8022c09f8013c1ebb48f001084b4684
:1094d00009f8058c254e94f83f104fea182809f832
:1094e000048c03f806cd2a4606f19000c6f89430a5
:1094f0000df038fd84f8600030b9d4e91232013340
:1095000042f10002c4e91232bde8f8834ff6ff725f
:10951000bde7012348f0210884f84530d7e7aef1d4
:109520000209d7b1104902eb820201ebc2010a899c
:10953000d0b2110a62820ef8020c0ef8011c48f437
:109540000468b9e7e18808f8021c090a08f8011c58
:10955000a8f1020e4ff400488ae7ff2108464ff6b3
:10956000ff72e7e7080000207800002098c600207e
:1095700026c7002070b5a2b074226121054604a858
:109580000ef0b2f91d491e4a91f8983092f8484001
:109590005a1cd2b2f5b11b4d6cb9cde9014400940f
:1095a00004a881f8982085f838400f227421fff72d
:1095b00025ff22b070bd012481f8982004a8cde9d0
:1095c000014400942246742185f83840fff716ffc5
:1095d00022b070bd7cb101240a4e01950294009422
:1095e00004a881f898202246742186f83840fff7b5
:1095f00005ff22b070bd034dcfe700bf98c6002025
:109600007800002008000020074b02225a7004282e
:1096100008d8dfe800f00303030603000120fff78a
:10962000a9bfcde4704700bf98c60020f0b5a3b035
:10963000064678220d4604a800210ef055f9dff801
:1096400028c1f2789cf899303a2a03f10107ffb259
:1096500020d0434a92f848205ab9cde9012200921d
:10966000294630460f228cf89970fff7c7fe23b0c9
:10967000f0bddff8f0e08cf899700124cde90144e9
:1096800000942946304622468ef83940fff7b6fe50
:1096900023b0f0bd042d0bd96c1f56fa84f40434aa
:1096a000f21c04a912f8010f01f8010b9442f9d140
:1096b00030787278043d6628e9b24dd046282ed025
:1096c00000eb8000103a02eb4002d2b2012a11d91d
:1096d000234a244d92f848408cb30124cde901443b
:1096e000009404a8224685f839408cf89970fff759
:1096f00085febce71a481b4d02eb820400ebc40058
:1097000090f82040dcb10124cde90144009404a884
:1097100085f839408cf89970fff770fea7e7462a64
:10972000ced1104d8cf899700024cde901440094fd
:1097300004a80f2285f83940fff760fe97e7cde9ce
:109740000144009404a80f2285f839408cf89970e0
:10975000fff754fe23b0f0bd662ab1d1e1e700bfa8
:10976000780000200800002098c60020032838b5a3
:1097700004460d4601d803290cd90f49002008f0f2
:1097800081fb022c0d4b0bd0032c0fd0122283f83f
:10979000472038bd094b022c187483f82010f3d1f0
:1097a000022df3d10b2283f8472038bd032dedd1d4
:1097b000172283f8472038bdb02c01010800002093
:1097c000052803d8034b83f8460070470249002060
:1097d00008f058bb08000020d02c0101014b83f891
:1097e00061007047080000202de9f0410546a4b053
:1097f00001a88c2200210ef077f86e68dff8bc809b
:1098000034787cb198f847200df10503023a601ec8
:1098100053fa80f0324401ab12f8011f03f8011b28
:109820008342f9d12644b6780ef0d5f86b681a1940
:10983000064428685778dd780bf0e2f998f847304d
:109840001949e41a2a46e4b2002008f01bfb174924
:109850000020224608f016fb1549002076b208f0d9
:1098600011fb7cb1651e0df10503dff8548001acde
:1098700053fa85f514f8012b4146002008f002fb4d
:10988000a542f7d10b49002008f038fb0a4bd3e979
:109890000621013241f10001df729e72c3e9062107
:1098a00024b0bde8f08100bfec2c0101042d0101c2
:1098b000382c0101102d0101780000200800002043
:1098c0003c2c010101200cf0cdbc00bf082310b5d9
:1098d000044c184684f83b300bf01afc84f83c002a
:1098e00010bd00bf08000020014b01221a71704713
:1098f000e40000202de9f047dff884a0dde9084509
:109900000f460646904699460af1dc0102463b4660
:10991000002008f0b7fa42464b460af1f401002055
:1099200008f0b0fa22462b460af58471002008f0b0
