:020000040000fa
:10000000f89301202d610201852203018922030159
:1000100091220301952203019922030100000000af
:10002000000000000000000000000000397a01011b
:100030008d220301000000009d7a0101057b010172
:100040009f7701019f7701019f77010159570101b6
:100050009f7701019f7701019f7701019f77010140
:100060009f7701019f7701019f7701019f77010130
:100070000d0101019f7701019f7701019f77010128
:100080009f7701019f7701019f770101dddd01016c
:100090009f7701019f7701019f7701019f77010100
:1000a0009f7701019f7701019f7701019f770101f0
:1000b0009f7701019f770101c9d401019d8f020142
:1000c00075430201651502019f7701019f770101c8
:1000d0009f7701019f7701014da202019f770101e6
:020000040000fa
:020000040004f6
:045f8800ffff000017
:020000040000fa
:020000040004f6
:045f8c0000400e843f
:020000040000fa
:020000040004f6
:045f900038fc745f06
:020000040000fa
:020000040004f6
:045f94003844121467
:020000040000fa
:020000040004f6
:045f98000300007191
:020000040000fa
:020000040004f6
:045f9c0002000000ff
:020000040000fa
:020000040004f6
:045fbc0000000010d1
:020000040000fa
:020000040100f9
:1040000007203200840100200000000000000000b2
:1040100006203200840100200000000000000000a3
:104020000520320084010020000000000000000094
:104030000420320084010020000000000000000085
:104040000320320084010020000000000000000076
:104050000220320084010020000000000000000067
:104060000120320084010020000000000000000058
:104070000020320084010020000000000000000049
:10408000f8b500bff8bc08bc9e46704789d4020151
:10409000f8b500bff8bc08bc9e46704765d4020165
:020000040000fa
:020000040100f9
:0840a000880e01000100000080
:020000040000fa
:020000040100f9
:1040a8000d0a20434d443e0d0a0000000d0a20442d
:1040b800657374696e6174696f6e204164647265ba
:1040c8007373203a20307825780a20000d0a205290
:1040d80053534920426173652056616c75652025ec
:1040e800640d0a000d0a2053544f5020414c4c20b7
:1040f8004143544956452054455354204d4f444557
:10410800530d0a000d0a205045522054455354209f
:104118004d4f44450d0a00000d0a20434f4e5449a7
:104128004e554f55532054455354204d4f44452028
:104138000d0a00000d0a2050524f4d495343554f68
:1041480055532054455354204d4f44450d0a000003
:104158000d0a204945454520416464726573732002
:104168003a20307825780d0a000000000d0a204317
:10417800534d41204d6f6465202d204e4f5f4353b2
:104188004d415f4e4f5f4946530d0a000d0a2043cb
:10419800534d41204d6f6465202d204e4f5f435392
:1041a8004d415f574954485f4946530d0a00000086
:1041b8000d0a2043534d41204d6f6465202d204347
:1041c800534d415f554e534c4f545445440d0a00ce
:1041d8000d0a2043534d41204d6f6465202d204327
:1041e800534d415f534c4f545445440d0a00000051
:1041f8000d0a204672616d652054797065203a2059
:1042080000000000426561636f6e206672616d6533
:104218000d0a000044617461206672616d650d0ac3
:104228000000000041636b206672616d650d0a0035
:10423800434d44206672616d650d0a004c4c444e36
:10424800206672616d650d0a000000004d756c7482
:1042580069707572706f7365206672616d650d0a9d
:1042680000000000496e76616c6964206672616db9
:10427800650d0a000d0a204170702052652d696e87
:10428800697469616c697a65640d0a000d0a496e82
:1042980076616c696420696e7075740d0a0000009f
:1042a8000d0a205468726f756768707574205465bc
:1042b8007374204d6f64650d0a0000000d0a2054c8
:1042c800696d6572204e6f742053746172746564f1
:1042d8000d0a00003a20504859204c617965722037
:1042e800636f6d6d616e6473000000005068794300
:1042f8006d647300185000013d69000120500001f1
:104308003c500001996d000148500001985000018f
:10431800dd6d0001a4500001e45000015d6e000154
:10432800f45000012c510001ad7600013c51000110
:10433800845100010169000190510001b851000148
:10434800a9710001c4510001f4510001c1680001c4
:10435800045200012c520001257200013c52000158
:10436800745200018568000180520001a4520001c6
:10437800a9720001b0520001dc520001ad5f0001da
:10438800e852000110530001157300011c5300018d
:1043980054530001955f00016453000190530001dc
:1043a800f1730001a0530001e453000151680001ba
:1043b800e8520001f053000165740001fc5300014c
:1043c80030540001d16000013c54000164540001e4
:1043d800e974000170540001a0540001096800014b
:1043e800ac540001d054000189750001dc5400016f
:1043f80008550001a1600001145500013c55000159
:10440800256600014855000184550001c96700016f
:1044180094550001bc55000139760001cc550001c6
:10442800045600015d70000110560001605600013d
:10443800a17000016c560001c0560001ad67000173
:10444800cc560001ec560001e1700001f056000165
:104458002c570001356b000140570001b05700018f
:10446800196c0001c05700010c580001895f000158
:1044780010580001305800016965000134580001e6
:1044880070580001fd64000180580001c8580001ff
:10449800d95f0001d85800011859000131600001a6
:1044a8002859000158590001f15f000164590001c1
:1044b8008c590001756000019c590001d059000118
:1044c800e1610001e45900011c5a0001815f00010b
:1044d8002c5a00016c5a00015d6200017c5a0001ef
:1044e800e45a000115610001f45a0001145b00014f
:1044f8000d6f0001245b0001505b0001797300011e
:10450800605b0001c85b000151710001d45b0001d0
:104518001c5c0001ad6100012c5c0001705c0001b5
:10452800f16a0001805c0001085d0001d16f0001a3
:10453800185d00017c5d0001c15f00018c5d000118
:10454800cc5d0001dd690001dc5d0001105e000149
:1045580015700001245e00019c5e0001616200018b
:10456800a85e0001c45e000159620001dc5e000122
:10457800005f0001d1640001185f0001345f000191
:10458800f96500014c5f0001685f0001855f00016b
:104598006c5f0001747275650000000054727565e7
:1045a8000000000066616c736500000046616c7372
:1045b800650000000d0a496e76616c696420696eb9
:1045c8007075742e20506c6561736520656e746516
:1045d8007220656974686572202774727565272072
:1045e8006f72202766616c7365270d0a0000000052
:1045f8000d0a205468726f75676870757420546965
:104608006d65722073657420746f2025752075732d
:104618006563730d0a0000000d0a204d6973736904
:104628006e6720506172616d65746572200d0a00b5
:104638000d0a2054696d65722073657420746f20ab
:1046480025750d0a000000000d0a204e6f2e206f00
:1046580066207061636b65747320696e20504552e3
:104668002074657374204d6f6465207365742074bd
:104678006f2025750d0a00000d0a5048595f5355e3
:1046880043434553530d0a000d0a5048595f54528d
:10469800585f41534c4545500d0a00000d0a5048db
:1046a800595f5452585f4157414b450d0a0000006d
:1046b8000d0a5048595f52465f5245515f41424f7b
:1046c800525445440d0a00000d0a5048595f52469d
:1046d8005f554e415641494c41424c450d0a000038
:1046e8000d0a5048595f4641494c5552450d0a003c
:1046f8005048595f425553590d0a00000d0a504859
:10470800595f4652414d455f50454e44494e470d0d
:104718000a0000000d0a5048595f494e56414c495d
:10472800445f504152414d455445520d0a00000026
:104738000d0a5048595f554e535550504f525445e5
:10474800445f4154545249425554450d0a000000f3
:104758000d0a5048595f4348414e4e454c5f4255fb
:1047680053590d0a000000000d0a5048595f43488c
:10477800414e4e454c5f49444c450d0a000000002f
:104788000d0a5048595f4e4f5f41434b0d0a0000d8
:104798000d0a5048595f4348414e4e454c5f4143ce
:1047a800434553535f4641494c5552450d0a000055
:1047b8000d0a5048595f554e4b4e4f574e5f535454
:1047c8004154450d0a00000057616b65757020540f
:1047d80072616e736365697665722e2e2e0d0a00fe
:1047e8000d0a204672616d65207265747279202dfc
:1047f8002025780a200000000d0a20547820506fe8
:1048080077657228696e2044426d29202d20256421
:104818002044426d0d0a20000d0a20547820506f64
:10482800776572202d2025640d0a20000d0a20537b
:104838006f757263652041646472657373203a20f2
:10484800307825780d0a00000d0a2050414e204985
:1048580044202d20307825780a2000000d0a2043b6
:1048680068616e6e656c2050616765202d20257823
:104878000a2000000d0a204368616e6e656c2020d6
:104888002d20307825780a2000000000496e6974d0
:1048980069616c697a696e67205048592e2e2e0d11
:1048a8000a0000005048595f5452585f4f46460d61
:1048b8000a0000005048595f52585f4f4e0d0a00d9
:1048c8005048595f54585f4f4e0d0a005048595f81
:1048d800425553595f52580d0a0000005048595f1d
:1048e800425553595f54580d0a0000005048595f0b
:1048f8005452585f534c4545500d0a005048595f73
:104908005452585f444545505f534c4545500d0a35
:10491800000000005048595f554e4b4e4f574e5fb0
:1049280053544154450d0a000d0a5375636365736a
:10493800730d0a0045727225643a2000556e6b6e3d
:104948006f776e20436f6d6d616e640d0a00000015
:10495800496e76616c696420506172616d65746539
:10496800720d0a004d697373696e67205061726138
:104978006d657465720d0a00496e76616c69642014
:10498800506172616d6574657220547970650d0aa5
:1049980000000000506172616d65746572204f758a
:1049a80074206f662052616e67650d0a0000000072
:1049b800496e76616c696420466f726d61740d0a88
:1049c800000000005363726970742050617273694b
:1049d8006e67204572726f720d0a0000486561703b
:1049e8002046756c6c0d0a00496e76616c6964200e
:1049f80053746174650d0a004e6f205265736f75ac
:104a0800726365730d0a0000424c45204572720db1
:104a18000a00000048414c204572720d0a0000004f
:104a2800556e6b6e6f776e204572720d0a0000002e
:104a38000d0a54727820697320636f6e6669677512
:104a480072656420746f2072656475636564207094
:104a58006f77657220636f6e73756d7074696f6eb2
:104a6800206d6f64650d0a000d0a20446576696340
:104a78006520496e646578206973203a2025640aa8
:104a8800000000000d0a2053686f727420416464ae
:104a980072657373206973203a00000030782578b6
:104aa8000d0a00000d0a204965656520416464729d
:104ab8006573732069733a000d0a444556494e449c
:104ac800580953484f525441444452094c514909da
:104ad80052535349095458504b54434e5409525851
:104ae800504b54434e540949454545414444520da1
:104af8000a000000256409003078257809090000bb
:104b08002538780900000000253878000d0a44652a
:104b18007669636520496e64657820697320696edb
:104b280076616c69640d0a000a00000052657365bd
:104b38007474696e67205048592e2e2e0d0a000095
:104b4800456e6572677920446574656374696f6e34
:104b5800205363616e6e696e672053746172742ea0
:104b68002e2e0d0a000000004544207363616e205c
:104b78006475726174696f6e2074696d65722073f3
:104b880074617274656420737563636573736675a5
:104b98006c6c792c207363616e6e65642063686148
:104ba8006e6e656c2069732025640d0a0000000094
:104bb80047657474696e67205048592050494220ef
:104bc8006174747269627574652e2e2e0d0a000068
:104bd8000d0a205048592050494220506172616d99
:104be8006574657220202d20307825780a20000011
:104bf8000d0a204672616d655479706520697320cd
:104c08003a0000000d0a54727820697320636f6eb1
:104c18006669677572656420746f206175746f20aa
:104c280061636b6e6f776c6564676520666f722071
:104c38007468652072656365697665642070616370
:104c48006b65740d0a000000456e61626c696e67e1
:104c58002052656365697665722066726f6d2050b3
:104c680048595f53544154455f5452585f4f464624
:104c780020746f205048595f53544154455f52582f
:104c88005f4f4e2e2e2e0d0a0000000053657474df
:104c9800696e67205472616e736365697665722008
:104ca800746f20536c6565702e2e2e0d0a0000005f
:104cb80053657474696e672043757272656e7420eb
:104cc8004368616e6e656c20746f20256420000057
:104cd8000d0a20506572666f726d696e67204343d6
:104ce800412e2e2e0d0a00000d0a2050414e20495b
:104cf80044203a20307825780a2000000d0a204503
:104d080078697374696e672044657374696e617439
:104d1800696f6e2041646472657373202d2030784a
:104d280025780a20000000000d0a204e65772044ef
:104d3800657374696e6174696f6e2041646472652d
:104d48007373202d20307825780a20000d0a20530f
:104d5800656c65637465642044657374696e617419
:104d6800696f6e2044657669636520697320696e92
:104d780020496e646578202d2025640a20000000f3
:104d88000d0a496e64657820696e206465766963ea
:104d980065207461626c6520697320656d70747933
:104da8002c2075706461746520746865206465766c
:104db800696365207461626c650d0a000d0a2045ff
:104dc80078697374696e6720536f757263652041e3
:104dd800646472657373202d20307825780a20006a
:104de8000d0a204e657720536f7572636520416404
:104df8006472657373203a202564200d0a00000050
:104e08000d0a20547820506f776572202d20256474
:104e18002044426d0d0a20000d0a53657420547811
:104e280020506f776572202d2025642044426d0d37
:104e38000a2000000d0a204672616d6520726574b3
:104e480072792073657420746f2d2025780a2000ec
:104e58000d0a204174747269627574652049442092
:104e68006973203a20256420000000000a41747408
:104e78007269627574652076616c756520736574f6
:104e880020746f3a20307825780000000d0a2054ed
:104e98007820506f77657228696e2044426d29200a
:104ea8002d2025640d0a20000a547820506f77655c
:104eb800722073657420746f3a2025640d0a00000f
:104ec8000d0a203136206269742041747472696257
:104ed8007574652076616c756520697320203a20a9
:104ee800257520000d0a2053657474696e6720507b
:104ef800485920504942206174747269627574651a
:104f08002e2e2e0d0a0000000a4174747269627513
:104f180074652076616c75652073657420746f3aca
:104f280020307825347800000d0a204465766963be
:104f38006520506572666f726d616e6365204461ad
:104f48007461204d6f64650d0a0000000d0a20444d
:104f5800657669636520506572666f726d616e6310
:104f68006520506572696f642054657374204d6fb5
:104f780064650d0a000000000d0a20446576696327
:104f88006520506572666f726d616e636520436f50
:104f98006e74696e756f75732054657374204d6fe8
:104fa80064650d0a000000000d0a204465766963f7
:104fb8006520506572666f726d616e63652050453d
:104fc800522054657374204d6f64650d0a0000000b
:104fd8000d0a2044657669636520506572666f72b4
:104fe8006d616e636520696e205468726f756768bd
:104ff8007075742054657374204d6f646520666ff6
:10500800722025752075736563730d0a0000000012
:10501800706879496e6974003a496e697469616c9f
:10502800697a65205048593a20706879496e6974e0
:105038000000000070687952657365740000000014
:105048003a52657365742074686520504859207316
:1050580074617465206d616368696e653a20706873
:105068007952657365742c3c736574206465666158
:10507800756c74205049422076616c7565732d30cb
:105088002f31203a20522c312f303e0d0a000000db
:1050980070687945645363616e0000003a454420a6
:1050a80073746172743a2070687945645363616ef1
:1050b8002c3c736574207363616e2064757261742f
:1050c800696f6e2072616e67696e672066726f6db8
:1050d80020312d31343e0d0a00000000676574410f
:1050e8007474726962757465000000003a476574eb
:1050f8002050485920504942206174747269627581
:1051080074653a2067657441747472696275746570
:105118002c3c6174747269627574652069643e0d13
:105128000a0000007365744174747269627574656d
:10513800000000003a5365742050485920504942f5
:10514800206174747269627574653a20736574417c
:1051580074747269627574652c3c617474726962e6
:105168007574652069643e2c3c617474726962755b
:1051780074652076616c75653e0d0a006765744339
:1051880068616e6e656c00003a4765742050485936
:1051980020504942206174747269627574653a20be
:1051a8006765744368616e6e656c0d0a00000000e7
:1051b8007365744368616e6e656c00003a5365747c
:1051c80020504859205049422061747472696275b0
:1051d80074653a207365744368616e6e656c2c3c27
:1051e8006368616e6e656c3e0d0a00006765744306
:1051f80068616e6e656c5067000000003a47657420
:10520800205048592050494220617474726962756f
:1052180074653a206765744368616e6e656c5067a3
:105228000d0a00007365744368616e6e656c5067a3
:10523800000000003a5365742050485920504942f4
:10524800206174747269627574653a207365744379
:1052580068616e6e656c50672c3c6368616e6e6544
:105268006c20706167653e0d0a0000006765745028
:10527800616e4964000000003a476574205048593f
:1052880020504942206174747269627574653a20cd
:1052980067657450616e49640d0a00007365745047
:1052a800616e4964000000003a5365742050485903
:1052b80020504942206174747269627574653a209d
:1052c80073657450616e49642c3c50414e204944ca
:1052d8003e0d0a0067657444657374416464720026
:1052e8003a476574205048592050494220617474e7
:1052f8007269627574653a206765744465737441b0
:105308006464720d0a000000736574446573744127
:10531800646472003a5365742050485920504942d9
:10532800206174747269627574653a207365744497
:10533800657374416464722c3c64657374206164a1
:1053480064726573733e0d0a00000000676574455a
:105358007874446573744164647200003a476574f4
:10536800205048592050494220617474726962750e
:1053780074653a206765744578744465737441644c
:1053880064720d0a00000000736574457874446502
:1053980073744164647200003a536574205048592c
:1053a80020504942206174747269627574653a20ac
:1053b80073657445787444657374416464722c3cf5
:1053c80045787420646573742061646472657373ce
:1053d800203634206269743e0d0a000067657453f4
:1053e800726341646472000073657453726341644c
:1053f800647200003a53657420504859205049425d
:10540800206174747269627574653a2073657444b6
:10541800657374416464722c3c73726320616464c4
:10542800726573733e0d0a0067657443736d614d51
:105438006f6465003a4765742050485920504942c6
:10544800206174747269627574653a206765744383
:10545800736d614d6f64650d0a00000073657443d8
:10546800736d614d6f6465003a53657420504859f7
:1054780020504942206174747269627574653a20db
:1054880073657443736d614d6f64652c3c6d6f6417
:10549800653e0d0a00000000676574547850777205
:1054a800000000003a47657420504859205049428e
:1054b800206174747269627574653a206765745402
:1054c800785077720d0a00007365745478507772bb
:1054d800000000003a536574205048592050494252
:1054e800206174747269627574653a2073657454c6
:1054f800785077722c3c7478207077723e0d0a00d1
:105508006765744965656541646472003a47657406
:10551800205048592050494220617474726962755c
:1055280074653a2067657449656565416464720d00
:105538000a0000007365744965656541646472001a
:105548003a53657420504859205049422061747478
:105558007269627574653a20736574496565654159
:105568006464722c3c496565652061646472657386
:1055780073203634206269743e0d0a0067657446ec
:1055880072616d6552657472790000003a476574fe
:1055980020504859205049422061747472696275dc
:1055a80074653a206765744672616d6552657472f8
:1055b800790d0a007365744672616d65526574727f
:1055c800790000003a5365742050485920504942e8
:1055d800206174747269627574653a2073657446e3
:1055e80072616d6552657472792c3c4e6f206f66de
:1055f80020726574726965733e0d0a007278456e93
:1056080061626c65000000003a525820454e4142e4
:105618004c453a207278456e61626c652c3c536546
:10562800742054525820737461746573205048591b
:105638005f53544154455f52585f4f4e2f5048595d
:105648005f53544154455f5452585f4f46463a2081
:10565800312f303e0d0a0000747278536c65657006
:10566800000000003a5365742054525820746f208b
:10567800736c6565702f6465657020736c65657003
:105688003a20747278536c6565702c3c736c656550
:1056980070206d6f6465202d20736c70206d6f64b1
:1056a8006520312f6465657020736c656570202de9
:1056b80020302f313e0d0a0074727857616b657582
:1056c800700000003a5365742054525820746f20bb
:1056d80057616b6575703a2074727857616b6575a0
:1056e800700d0a0043434100506572666f726d2069
:1056f800434341206f6e206465736972656420635b
:1057080068616e6e656c203a204343412c3c70689a
:10571800796368616e6e656c3a2031312d32363ea0
:105728000d0a000075706461746544657669636587
:105738005461626c65000000757064617465206472
:105748006576696365207461626c65203a207570be
:10575800646174654465766963655461626c652c3f
:105768003c506172616d657465723a206465766952
:10577800636520696e6465782c73686f7274206144
:1057880064647265737328313620626974292c2029
:1057980049656565206164647265737328363420d1
:1057a800626974293e0d0a00726561644465766910
:1057b80063655461626c6500726561642064657636
:1057c800696365207461626c65203a207265616462
:1057d8004465766963655461626c652c3c506172fe
:1057e800616d657465723a206465766963652069e0
:1057f8006e646578202d2d20462f696e6465783e8d
:105808000d0a0000262626003a537769746368203b
:10581800746f20636f6d6d616e64206d6f64653a9f
:10582800202626260d0a00002b2b2b003a737769b9
:1058380074636820746f205573657220496e7075a3
:10584800742064617461206d6f64653a202b2b2b82
:105858002c3c74696d6520706572696f6420696e8f
:105868002075733e0d0a0000706572696f64546597
:1058780073744d6f646500003a73776974636820c8
:10588800746f20706572696f6469632074657374de
:10589800206d6f64653a20706572696f6454657332
:1058a800744d6f64652c3c74696d65722070657207
:1058b800696f6420696e2075733e0d0a0000000050
:1058c80073746f70546573744d6f646500000000e5
:1058d80053746f7020616c6c206163746976652005
:1058e8006170706c69636174696f6e20746573743c
:1058f800206d6f6465733a2073746f7050657269b8
:105908006f64546573744d6f64650d0a2000000060
:10591800636f6e74546573744d6f646500000000a6
:105928003a73776974636820746f20636f6e746963
:105938006e756f75732074657374206d6f64653a46
:1059480020636f6e74546573744d6f64650d0a003f
:10595800706572546573744d6f6465003a73776946
:1059680074636820746f20504552207465737420e6
:105978006d6f64653a20706572546573744d6f6419
:10598800650d0a0070726f6d546573744d6f6465b0
:10599800000000003a73776974636820746f2070a0
:1059a800726f6d697363756f757320746573742096
:1059b8006d6f64653a2050726f6d546573744d6fe6
:1059c80064650d0a000000007468726f756768707e
:1059d8007574546573744d6f646500003a73776924
:1059e80074636820746f207468726f756768707567
:1059f800742074657374206d6f64653a20746872de
:105a08006f756768707574546573744d6f64650d50
:105a18000a000000676574416464724d6f646573c1
:105a2800000000003a67657420736f757263652023
:105a3800616e642064657374696e6174696f6e2049
:105a480061646472657373696e67206d6f646573f2
:105a58003a20676574416464724d6f6465730d0a1a
:105a680000000000736574416464724d6f6465736f
:105a7800000000003a73657420736f7572636520c7
:105a8800616e642064657374696e6174696f6e20f9
:105a980061646472657373696e67206d6f646573a2
:105aa8003a20736574416464724d6f6465732c3c6d
:105ab8007372632061646472206d6f64653a302d7f
:105ac800333e2c3c646573742061646472206d6f8e
:105ad80064653a302d333e0d0a0000006765744650
:105ae80072616d6554797065000000003a676574ed
:105af800206672616d6520747970653a20676574f7
:105b08004672616d6554797065000000736574466e
:105b180072616d6554797065000000003a736574b0
:105b2800206672616d6520747970653a20736574ba
:105b38004672616d65547970652c3c52616e67657b
:105b48003a20302d353e000073656c6563744473ec
:105b580074446576000000003a73656c65637420d0
:105b680064657374696e6174696f6e2064657669c3
:105b780063652066726f6d2064657669636520745d
:105b880061626c653a2073656c6563744473744430
:105b980065766963652c3c44657669636520746144
:105ba800626c6520496e6465783a20302d4e554dfb
:105bb8005f4f465f444556494345533e0d0a000032
:105bc800706879436e745478000000003a53746129
:105bd80072747320636f6e74696e756f7573207459
:105be80072616e736d697373696f6e206f6e206377
:105bf800757272656e74206368616e6e656c3a20aa
:105c0800706879436e7454782c3c74784d6f646571
:105c18003e0d0a0073746f70506879436e7454783f
:105c2800000000003a53746f707320636f6e7469dc
:105c38006e756f7573207472616e736d69737369b5
:105c48006f6e206f6e2063757272656e7420636864
:105c5800616e6e656c3a2073746f70506879436e2c
:105c68007454780d0a000000436f6e6669675278b5
:105c78005250434d6f646500436f6e666967757275
:105c88006573207468652072656475636564207047
:105c98006f77657220636f6e73756d7074696f6e60
:105ca800206d6f64653a20436f6e6669675278525b
:105cb80050434d6f64652c3c30783031202d205492
:105cc8006f20456e61626c65207468652072785239
:105cd8005043206d6f64652c2030783030202d20a3
:105ce800546f2064697361626c6520746865207202
:105cf8007820525043206d6f64653e0d0a00000005
:105d0800636f6e6669674175746f41636b0000006d
:105d1800436f6e66696775726573205452582066c2
:105d28006f72206175746f2061636b6e6f776c653d
:105d38006467696e6720746865207265736572763a
:105d48006564206672616d653a20636f6e66696787
:105d58004175746f41636b2c3c656e61626c654183
:105d680041434b2d747275652f66616c73653e0dea
:105d78000a000000676574525353494261736556bf
:105d8800616c0000676574207468652062617365e2
:105d980020525353492076616c756520666f7220d6
:105da8007265737065637469766520726164696f82
:105db800733a676574525353494261736556616c0f
:105dc8000d0a0000676574547278537461747573b2
:105dd800000000006765742074686520737461743e
:105de8007573206f6620746865207472616e7363c2
:105df80065697665723a676574547278537461742c
:105e080075730d0a00000000636f6e66696752784b
:105e180053656e736974697669747900436f6e6649
:105e28006967757265732072656365697665722046
:105e380073656e7369746976697479206c657665c3
:105e48006c2e20546869732069732075736564200b
:105e5800746f20646573656e736974697a652074fc
:105e680068652072656365697665723a636f6e6608
:105e78006967527853656e73697469766974792ca9
:105e88003c7064746c6576656c2d3e302d31353e02
:105e98000d0a0000636f6e66696754785077720068
:105ea800636f6e66696775726520746865205458fb
:105eb80020506f7765720d0a00000000636f6e66f0
:105ec8006967416e74656e6e61446976657273695f
:105ed80074790000436f6e6669677572652074682f
:105ee8006520416e74656e6e6120446976657273d3
:105ef8006974790d0a0000007570646174655468ee
:105f0800726f75676870757454696d65000000007c
:105f1800557064617465205468726f756768707530
:105f2800742054696d65720d0a0000007570646113
:105f38007465504552546573745061636b6574732e
:105f4800436e740055706461746520504552207426
:105f5800657374205061636b6574730d0a000000eb
:105f6800626c6500737461727420626c7565746f1d
:085f78006f74680d0a0000bf00
:020000040000fa
:020000040100f9
:105f8000704700bf1ff0cabe0149002010f000bbdf
:105f9000a8400001034b0449d3e90623002010f078
:105fa000f7ba00bf08000020b4400001024b0349cb
:105fb0005a8a002010f0ecba08000020b44000011a
:105fc00008b52df089f903490246bde808400020d4
:105fd00010f0debad440000108b50449002010f0ea
:105fe000d7fabde8084003f029be00bfec4000012d
:105ff00008b50b49002010f0cbfa03f01ffe094b47
:10600000094800224ff480711a6099809a7113f048
:10601000abfd064b01221a76bde8084003f0b4bd83
:106020000c410001e400002060e31600e8f50020c8
:1060300010b503f003fe0b4b0b4800244ff48032e5
:106040009c801a609c7113f08ffd084b0849204614
:10605000012283f8382010f09bfabde8104003f0cd
:1060600093bd00bfe400002060e31600e8f50020c7
:106070002041000100b50849c3b0002010f088faa3
:10608000032301a9002205488df8043019f07cfe95
:1060900043b05df804fb00bf3c410001500100200b
:1060a00010b582b06946f02019f0b8fe08b102b010
:1060b00010bddde90023044c0449c4e90a2310f0b3
:1060c00067fa02b010bd00bf08000020584100016f
:1060d0000b4b93f83f0038b101280cd0022806d0b2
:1060e0000849002010f054ba074910f051ba074986
:1060f000002010f04dba0649002010f049ba00bf48
:1061000008000020d841000174410001b84100019d
:106110009441000108b51c49002010f039fa1b4bce
:1061200093f84630052b28d8dfe803f0090f151b3c
:10613000210317490020bde8084010f065ba154951
:106140000020bde8084010f05fba13490020bde808
:10615000084010f059ba11490020bde8084010f07d
:1061600053ba0f490020bde8084010f04dba0d4960
:106170000020bde8084010f047ba0b490020bde8f8
:10618000084010f041ba00bff841000108000020ab
:10619000544200010c4200011c4200012c4200014b
:1061a00038420001444200016c42000108b526f06b
:1061b000c5fd03f0abff00b908bd03490020bde8f1
:1061c000084010f021ba00bf7c42000108b5034925
:1061d000002010f019fa002008bd00bf9442000111
:1061e00030b583b000248df8074003f027fd134b32
:1061f00013489c804ff080711960124d9c7113f010
:10620000b3fc114b11490122204683f8582010f0ad
:10621000bff92346aa690e480df1070108f0e6f818
:10622000e860013003d003f0affc03b030bd20467e
:10623000084910f0e9f903b030bd00bfe4000020c8
:1062400060e31600c8000020e8f50020a842000125
:10625000bd990001c4420001704700bf704700bff4
:10626000704700bf0448382100f50d7300f5137224
:1062700000f5157007f0ccb8a840000138b50d4600
:10628000104904462cf024fa90b10f4920462cf016
:106290001ffa68b10d4920462cf01afa20b12046a9
:1062a0000b492cf015fa30b900232b70012038bdb2
:1062b0000120287038bd0749002010f0a5f9002002
:1062c00038bd00bf9c450001a4450001ac4500015c
:1062d000b4450001bc45000170b5144c82b00023e8
:1062e0000d46102201a9236006462cf051fb2368bd
:1062f0002bb9019b1b7813b980b2ff2806d9002067
:106300000b4910f081f9002002b070bd01a93046a0
:1063100010222cf03dfb2368c0b21bb9287001206d
:1063200002b070bdfff752ffeee700bf48fd00204e
:106330009442000170b5144c82b000230d460a222d
:1063400001a9236006462cf023fb23682bb9019b8f
:106350001b7813b980b2ff2806d900200b4910f032
:1063600053f9002002b070bd01a930460a222cf07a
:106370000ffb2368c0b21bb92870012002b070bdaa
:10638000fff724ffeee700bf48fd00209442000124
:1063900030b50b4c83b000230d460a2201a92360bf
:1063a0002cf0f6fa236833b9019b1b781bb92870cf
:1063b000012003b030bdfff709ff03b030bd00bfbf
:1063c00048fd002070b5144c82b000230e460a220e
:1063d00001a9236005462cf0d1fa23682bb9019b53
:1063e0001b7813b9b0f5803f06d300200b4910f09d
:1063f0000bf9002002b070bd01a928460a222cf03a
:10640000bdfa236880b21bb93080012002b070bd94
:10641000fff7dcfeeee700bf48fd002094420001dc
:1064200070b5144c82b000230e46102201a92360df
:1064300005462cf0a3fa23682bb9019b1b7813b9ee
:10644000b0f5803f06d300200b4910f0ddf80020a6
:1064500002b070bd01a9284610222cf08ffa2368e3
:1064600080b21bb93080012002b070bdfff7aefed4
:10647000eee700bf48fd00209442000170b5124cc9
:1064800082b000230e460a2201a9236005462cf0a3
:1064900075fa236813b9019b1b7833b100200b49af
:1064a00010f0b2f8002002b070bd01a928460a22ff
:1064b0002cf064fa23681bb93060012002b070bd73
:1064c000fff784feefe700bf48fd00209442000183
:1064d00008b550680649fff7d1ff00b908bd054b64
:1064e00005499a690020bde8084010f051b800bf86
:1064f000e0000020c8000020f8450001012906dd69
:1065000008b550681149fff7b9ff20b908bd104917
:10651000002010f03db80f4b0f491a69002010f011
:1065200037f803f08bfb0d4a0d4800234ff48071c0
:1065300093801160937113f017fb0a4b012283f8cb
:106540007820bde8084003f01fbb00bfd800002042
:1065500020460001c800002038460001e400002069
:1065600060e31600e8f50020012906dd38b5506823
:106570000e49fff783ff20b938bd0d49002010f008
:1065800007b80c4b00241c7003f058fb0a4b0b4857
:106590009c8001251d609c7113f0e6fa084b83f87e
:1065a0009850bde8384003f0efba00bfdc0000208f
:1065b0002046000100000020e400002060e31600f7
:1065c000e8f5002030b50b4c83b000230d461022b7
:1065d00001a923602cf071f823683bb9019b1b785b
:1065e00023b9c5e90001012003b030bdfff7eefd7e
:1065f00003b030bd48fd002010b550680649fff7d4
:10660000e1ff00b910bd054b0549d3e91a2300206d
:10661000bde810400ff0bcbf700000200800002053
:1066200050460001f0b585b050680023002202a951
:10663000cde90223fff7c6ff08b905b0f0bddde9db
:1066400002236946f020cde900230ef0cbfd04467d
:106650000028f2d102a9f02019f0e0fbdde9026781
:10666000074b084d0849c3e90067204632463b46c0
:10667000c5e90a67c5e902670ff08aff05b0f0bdfa
:1066800078000020080000205841000130b50d4c72
:1066900083b000230d460a2201a923602cf00df8d7
:1066a00023683bb9019b1b7823b9c5e90001012090
:1066b00003b030bd044900200ff0a6ff002003b056
:1066c00030bd00bf48fd002094420001862824d040
:1066d0000bd98a2825d012d98c2826d029d38d28e9
:1066e0002bd1234900200ff053bf822829d00dd988
:1066f00084282ad02dd81f4900200ff049bf8828b0
:106700002bd02ed81c4900200ff042bf68b381283f
:1067100013d11a4900200ff03bbf194900200ff098
:1067200037bf184900200ff033bf174900200ff082
:106730002fbf164900200ff02bbf154900200ff086
:1067400027bf144900200ff023bf134900200ff08a
:106750001fbf124900200ff01bbf114900200ff08e
:1067600017bf104900200ff013bf0f490ff010bfe3
:1067700098470001b8460001044700019046000117
:10678000f8460001584700018847000170470001a2
:10679000b8470001a4460001d0460001e8460001c8
:1067a0001c470001384700018046000108b5054933
:1067b00000200ff0edfe29f0fbffbde80840fff7d9
:1067c00085bf00bfd047000100b583b000230df1a5
:1067d000070159208df8073019f020fb50b9084bfc
:1067e0009df80720074983f842200ff0d1fe03b03f
:1067f0005df804fbfff76aff03b05df804fb00bf20
:1068000008000020e847000130b583b06946022047
:1068100019f004fb90b90b4c0b4994f92120054663
:106820000ff0b6fe28469df8002008490ff0b0fe94
:106830009df8003084f8223003b030bdfff746ffea
:1068400003b030bd080000200048000120480001ce
:1068500000b583b06946532019f0e0fa48b9074bf8
:10686000bdf800200649da800ff092fe03b05df813
:1068700004fbfff72bff03b05df804fb08000020ca
:106880003448000110b582b06946502019f0c6faac
:106890000446fff71bff204654b9bdf80020064907
:1068a0000ff076fe054bbdf800205a8002b010bdf7
:1068b000fff70cff02b010bd504800010800002097
:1068c00010b582b00df10701042019f0a7fa0446b3
:1068d000fff7fcfe204654b99df8072006490ff04b
:1068e00057fe064b9df807205a7002b010bdfff707
:1068f000edfe02b010bd00bf64480001080000209a
:1069000010b582b06946002019f088fa0446fff7f6
:10691000ddfe204654b99df8002006490ff038fef0
:10692000054b9df800201a7002b010bdfff7cefe97
:1069300002b010bd7c4800010800002008b50549e0
:1069400000200ff025fe1cf0a9f8bde80840fff775
:10695000bdbe00bf94480001083818282ad8dfe8d7
:1069600000f0112929292929291529191d29292941
:10697000212929252929292929290d000f49002004
:106980000ff006be0e4900200ff002be0d49002098
:106990000ff0febd0c4900200ff0fabd0b4900209e
:1069a0000ff0f6bd0a4900200ff0f2bd09490020a2
:1069b0000ff0eebd084900200ff0eabd04490001c8
:1069c000ac480001f4480001d4480001e44800014b
:1069d000bc480001c84800011c49000108b52bf063
:1069e00001fabde80840fff7b7bf00bf014900202a
:1069f0000ff0cebd3049000110b5044602462e49c5
:106a00000020013c0ff0c4fd0b2c4fd8dfe804f050
:106a10000c12181e242a30363c4248062749002012
:106a2000bde810400ff0b4bd25490020bde810407e
:106a30000ff0aebd23490020bde810400ff0a8bd07
:106a400021490020bde810400ff0a2bd1f490020e1
:106a5000bde810400ff09cbd1d490020bde810406e
:106a60000ff096bd1b490020bde810400ff090bd0f
:106a700019490020bde810400ff08abd17490020d9
:106a8000bde810400ff084bd15490020bde810405e
:106a90000ff07ebd13490020bde810400ff078bd17
:106aa00011490020bde810400ff072bd0f490020d1
:106ab000bde810400ff06cbd3c4900011c4a0001cc
:106ac00044490001584900016c4900018049000116
:106ad0009c490001b8490001cc490001e44900018a
:106ae000f0490001004a0001104a0001284a000153
:106af00000b5012383b099428df8073012dd50684c
:106b00000df10701fff716fc10b903b05df804fba7
:106b10009df8070028f072ff0028f6d104490ff015
:106b200073fdf2e70320fff767ff03b05df804fb96
:106b3000384a0001f0b585b000240026002703295b
:106b40008df80540adf80640cde902671cdd0df17a
:106b5000050150681546fff7edfb40b19df8052093
:106b6000531e012b15d8204626490ff011fd0df1bb
:106b70000601a868fff754fc80bbe86802a9fff78c
:106b800021fd58b905b0f0bd0320fff735ff05b072
:106b9000f0bd0520fff730ff05b0f0bd1a491b4cd2
:106ba00000200ff0f5fc9df805301949dde902677a
:106bb00003eb830304ebc303c3e9006700203b46f8
:106bc00032460ff0e5fc9df8053003eb830304eb40
:106bd000c304012384f8203005b0f0bd0d49002026
:106be0000ff0d6fc9df80530084abdf8064008496c
:106bf00003eb830302ebc303002022461c810ff04a
:106c0000c7fcbae7704a0001ac4a000178000020d6
:106c1000a44a00018c4a00012de9f04182b0002312
:106c20000129adf806304ddd50680df10601fff782
:106c3000c9fb002843d0bdf80620012a01d9ff2a4c
:106c40004cd14b4900200ff0a3fcbdf80630ff2bc0
:106c500048d0dbb2474c03eb830304ebc30494f846
:106c60002000002834d0444900200ff0cdfcbdf8ae
:106c70000620424900200ff08bfc22894049002069
:106c80000ff086fce27a3d4900200ff081fc94f978
:106c90000a203a4900200ff07bfcd4e9042339494b
:106ca00000200ff075fcd4e90623364900200ff0d0
:106cb0006ffcd4e90023344900200ff069fc02b0d6
:106cc000bde8f0810320fff797fe02b0bde8f08138
:106cd0002e490ff099fc02b0bde8f0810520fff7c6
:106ce0008bfeece7254d234ca5f13c0100200ff075
:106cf0008bfc94f8203005f1040805f10c07002600
:106d00003bb92834002edad194f820300126002b2c
:106d1000f7d03246294600200ff03afc228941463e
:106d200000200ff035fce27a294600200ff030fcfd
:106d300094f90a20294600200ff02afcd4e9042304
:106d4000394600200ff024fcd4e906233946002000
:106d50000ff01efcd4e900230b4900200ff018fcb3
:106d60000b4900200ff050fc0a4812f0fdfec8e766
:106d7000704a000178000020c04a0001fc4a00016e
:106d8000004b0001084b0001104b0001144b0001a7
:106d9000304b000160e3160000b5012983b015dd1a
:106da00050680df10701fff769fa10b903b05df8fb
:106db00004fb094900200ff0ebfb9df8070022f0cf
:106dc00031fafff783fc03b05df804fb0320fff703
:106dd00013fe03b05df804fb344b000130b583b003
:106de00000230c4615468df807301bf057fee0b91e
:106df000012c1cdd68680df10701fff79bfa18b143
:106e00009df807300e2b1ed81149124d00200ff0af
:106e1000bffb9df8070085f83b001bf0dffd044633
:106e200085f83c00fff752fc34b103b030bd0320bd
:106e3000fff7e2fd03b030bd2a78074920460ff086
:106e4000a7fb03b030bd0520fff7d6fdede700bf7f
:106e5000484b000108000020704b000110b584b0c1
:106e6000002301298df8073043dd50680df107013b
:106e7000fff732fa18b19df80730f02b3ed800200a
:106e800020490ff085fb9df8070068b1831e022b97
:106e90000ad9a0f14e03dbb20b2b12d840f60b221d
:106ea00022fa03f3db0708d502a918f0b7ff04465e
:106eb000fff70cfc3cb19df8070053280ad050287e
:106ec00008d004b010bd20469df808200e490ff0f0
:106ed0005ffbf0e702a918f0a1ff0446fff7f6fbfd
:106ee000002ceed12046bdf8082007490ff050fbda
:106ef000e7e70320fff780fd04b010bd0520fff792
:106f00007bfddee7b84b0001d84b000110b582b025
:106f1000002401298df807401fdd50680df107019d
:106f2000fff708fab8b19df80730052b1ad81f4aa9
:106f30001f4982f8463020460ff02afb9df80730a3
:106f4000052b04d8dfe803f0181d22272c1319495c
:106f500000200ff059fb02b010bd0320fff74cfddd
:106f600002b010bd0520fff747fd02b010bd124969
:106f700000200ff049fbeee7104900200ff044fb22
:106f8000e9e70f4900200ff03ffbe4e70d4900203f
:106f90000ff03afbdfe70c4900200ff035fbdae792
:106fa0000a4900200ff030fbd5e700bf08000020a1
:106fb000f84b00016c420001544200010c420001f8
:106fc0001c4200012c4200013842000144420001f1
:106fd00000b5012383b099428df8073012dd506867
:106fe0000df10701fff74af910b903b05df804fb92
:106ff0009df8070029f024f80028f6d104490ff085
:1070000003fbf2e70320fff7f7fc03b05df804fb96
:107010000c4c000100b583b0032001298df8070056
:1070200017dd50680df10701fff784f968b19df88d
:1070300007000f280cd827f05df930b90df10701d2
:1070400007201bf00bfffff741fb03b05df804fbcb
:107050000520fff7d1fc03b05df804fb00b5012962
:1070600083b015dd50680df10701fff707f910b97e
:1070700003b05df804fb094900200ff089fa9df880
:10708000070022f003f9fff767fc03b05df804fb8b
:107090000320fff7b1fc03b05df804fb504c000186
:1070a00010b5012982b014dd50680df10701fff71a
:1070b000e5f808b902b010bd9df807400749002067
:1070c0000ff066fa204624f0c9fefff7fffa02b07f
:1070d00010bd0320fff790fc02b010bd944c0001de
:1070e00010b584b0002401298df807401add5068de
:1070f0000df10701fff71ef990b19df80720a2f1ed
:107100000b030f2b1bd8104920460ff041fa9df8b6
:1071100007308df80830204602a90ef063f830b130
:1071200004b010bd0320fff767fc04b010bd074991
:107130000ff02efa1ef05af8fff7c8faf0e7052014
:10714000fff75afc04b010bdb84c0001d84c000148
:1071500030b583b00020012302298df806008df898
:10716000073017dd0df1060150681446fff7e2f80d
:1071700070b19df80650012d11d8a0680df10701de
:10718000fff77cf820b128469df807101cf09aff05
:1071900003b030bd0320fff72ffc03b030bd052046
:1071a000fff72afc03b030bd10b584b000230129dd
:1071b0008df8073023dd50680df10701fff7baf8ad
:1071c0009df8073018b1a3f10b020f2a1cd802a9b1
:1071d00000208df808300ef005f80446fff776fa27
:1071e0000cb104b010bd0df10701204618f016fed9
:1071f00070b10a4b9df807201a7004b010bd03202f
:10720000fff7fafb04b010bd0520fff7f5fbe8e738
:107210009df8072002490ff0bbf9eae708000020bb
:107220007c48000110b584b0002301298df8073097
:107230002add50680df10701fff77cf89df8073053
:1072400058b113f0fd0f08d0a3f11002012a04d9a0
:107250000520fff7d1fb04b010bd02a904208df872
:1072600008300df0bfff0446fff730fa002cf2d1d2
:107270000df10701042018f0d1fd50b1084b9df825
:1072800007205a7004b010bd0320fff7b5fb04b00f
:1072900010bd9df8072003490ff07af9eee700bf13
:1072a000080000206448000110b584b000230129c3
:1072b000adf806301fdd50680df10601fff7b0f89c
:1072c00008b904b010bdbdf80630adf8083002a909
:1072d00050200df087ff0446fff7f8f9002cf0d19d
:1072e0000df10601502018f099fd48b1074bbdf88b
:1072f00006205a80e5e70320fff77efb04b010bdaf
:10730000bdf8062002490ff043f9efe7080000201e
:10731000f04c000130b583b000240129adf80640df
:107320001cdd50680df10601fff77af808b903b0cb
:1073300030bd0d4d0d496a8a20460ff029f9bdf880
:1073400006200b496a8220460ff022f9094b6a8a0f
:107350001a86012283f8482003b030bd0320fff7ce
:107360004bfb03b030bd00bf08000020044d0001fe
:10737000304d00017800002010b582b000240129b2
:107380008df8074022dd50680df10701fef7d2ffae
:1073900008b902b010bd20469df8072010490ff033
:1073a000f7f89df807200f4b02eb820203ebc203b4
:1073b00093f8200078b1d3e900010b4a1b8953826e
:1073c000c2e90c01c2e9060102b010bd0320fff7bb
:1073d00013fb02b010bd05490ff0daf8d9e700bf82
:1073e000544d00017800002008000020884d000165
:1073f00030b5012983b04ff000044ff00005cde90e
:10740000004521dd50686946fff7dcf808b903b094
:1074100030bd104c1049d4e9062300200ff0b8f815
:10742000dde900230d490020c4e90c23c4e906234b
:107430000ff0aef8d4e90601094b0122c3e90a01b5
:1074400083f8482003b030bd0320fff7d5fa03b01e
:1074500030bd00bf08000020044d0001304d000188
:107460007800002030b585b000240129adf8064031
:107470002add50680df10601fef7d2ff08b905b00c
:1074800030bd154dbdf806301449ea88adf8083016
:1074900020460ff07df802a953200df0a3fec0b9dd
:1074a0000df10601532018f0b9fc0028e7d1bdf812
:1074b00006300b4ceb8001250a4923811a4684f8db
:1074c00020500ff065f8dae70320fff795fa05b0d2
:1074d00030bdfff7fbf8d2e708000020c44d0001e3
:1074e00078000020e84d000100b583b00023012999
:1074f0008df807301fdd50680df10701fef71aff08
:1075000088b99df807001b4bd8b101282ad0022862
:107510001fd00322184983f83f2000200ff038f8cd
:1075200003b05df804fb9df807000328ebd90520a4
:10753000fff762faf4e70320fff75efa03b05df8a5
:1075400004fb0e4983f83f000ff022f803b05df80a
:1075500004fb83f83f000a4900200ff019f803b03c
:107560005df804fb83f83f00064900200ff010f897
:10757000d6e700bf08000020d84100017441000197
:10758000b84100019441000130b585b000240129c3
:107590008df8074027dd50680df10701fef7f8fe72
:1075a000f8b19df9072002f10c03dbb21a2b29d8a0
:1075b0001e4d1f4985f8212020460ef0e9ff95f960
:1075c000213013f1200f13da202202a902208df8b6
:1075d00008200df007fed0b902a9022018f01efc09
:1075e000d8b105b030bd0320fff706fa05b030bdb5
:1075f0001f2b10dc002bdab2e7da02f01f0242f098
:107600002002e2e70520fff7f7f905b030bdfff7ec
:107610005df805b030bd1f22d7e79df80820054969
:1076200085f822200ef0b4ffdbe700bf0800002041
:10763000084e0001204e000100b585b000235068bf
:107640008df807300df10701fef774fe9df8073045
:1076500008b1072b1fd802a959208df808300df06a
:10766000c1fd40b90df10701592018f0d7fb38b121
:1076700005b05df804fbfff729f805b05df804fbe1
:10768000084b9df80720084983f842200ef080ff40
:1076900005b05df804fb0520fff7aef905b05df815
:1076a00004fb00bf080000203c4e000130b585b04f
:1076b000002402298df804408df8054040f3af8086
:1076c0000df1020150681546fef706fe002800f095
:1076d000a4809df80220f02a00f2a68020465d4991
:1076e0000ef056ff9df80230002b44d0da1e012a1e
:1076f00041d9a3f14e02d2b20b2a36d9022b40f067
:107700008c800df10501a868fef742fe50b39df88c
:1077100005300c33dbb21a2b00f286804e4b4f49fa
:1077200093f9212000200ef033ff9df9052012f17e
:10773000200f7edb1f2a00f38b80002ad3b203daee
:1077400003f01f0343f0200302a99df802008df807
:1077500004308df808300df045fd0446fef7b6ff05
:10776000002c68d09df802302ae040f60b2121fa67
:1077700002f2d20724d50df10301a868fef7acfd93
:10778000d0b19df80330322b4ed802a99df80200eb
:107790008df808300df026fd0446fef797ff5cb922
:1077a0000df103019df8020018f038fb20b99df897
:1077b00003202b490ef0ecfe9df80230022ba0d0e6
:1077c000532b01d0502b28d1a8680df10601fef7ec
:1077d000f9fd10b3bdf80620224900200ef0d8feb6
:1077e000214900200ef0d4febdf806309df80200bd
:1077f000adf8083002a90df0f5fc0446fef766ff6f
:107800005cb90df106019df8020018f007fb20b9e4
:10781000bdf8062015490ef0bbfe05b030bd0320b3
:10782000fff7eaf805b030bd0520fff7e5f805b031
:1078300030bd202388e701a99df8020018f0eefa78
:1078400000288fd19df8042009490ef0a1fe89e798
:107850001f2379e7584e000108000020944e0001d4
:10786000744e0001c84e0001ec4e0001104f0001a3
:10787000b04e0001fc2804d0fe2802d010b1fff762
:10788000bbb8704701490ef083be00bf304900010c
:1078900030b4084c9df80850207061709df80c00c1
:1078a0009df81010a270e37065712071a17130bc59
:1078b000704700bfe400002070b5744e96f8983011
:1078c00082b0002b64d196f87820002a36d196f841
:1078d0003830002b40f08780307e002840f0ad80ab
:1078e00096f85830002b51d0694b6a499a6986f84e
:1078f00058000ef04dfe68496848d1e91423c6e9e6
:107900001223d1e91623d1e91245c6e91423002236
:107910000023c1e91623c1e91223c1e91423c6e9f2
:10792000104512f021f9d6e91401d6e91223cde968
:107930000001d6e9100102f047f827e0184658493f
:1079400086f878300ef060fe53495448d1e914238c
:10795000c6e91a23d1e91623d1e91245c6e91c2349
:1079600000220023c1e91623c1e91223c1e914232f
:10797000c6e9184512f0f8f8d6e91c01d6e91a2331
:10798000cde90001d6e9180102f01ef802b070bd81
:1079900000231846434986f898300ef035fe3e49dc
:1079a0003e48d1e91423c6e92223d1e91623d1e9bf
:1079b0001245c6e9242300220023c1e91623c1e9a8
:1079c0001223c1e91423c6e9204512f0cdf8d6e907
:1079d0002401d6e92223cde90001d6e9200101f0f6
:1079e000f3ff02b070bd10462f4986f838200ef024
:1079f0000bfe29492948d1e91423c6e90a23d1e914
:107a00001623d1e91245c6e90c2300220023c1e95f
:107a10001623c1e91223c1e91423c6e9084512f06f
:107a2000a3f8d6e90c01d6e90a23cde90001d6e98d
:107a3000080101f0c9ff02b070bd18461b4933763a
:107a40000ef0e2fd14491548d1e91423c6e90223da
:107a5000d1e91623d1e91245c6e904230022002307
:107a6000c1e91623c1e91223c1e91423c6e900457f
:107a700012f07af8d6e90401d6e90223cde9000133
:107a8000d6e9000101f0a0ff80e700bfe8f5002083
:107a9000c8000020d84f00010800002040420f001d
:107aa000544f0001304f0001804f0001b04f0001e2
:020000040000fa
:020000040100f9
:107ab000f8b5214c2568626863680027064682f89d
:107ac0005170181d0f461df05df938b96268a36842
:107ad000d16a01228a4023ea0203a360731c14d0f6
:107ae0006368ad195d6006d3206a6168bde8f8403f
:107af00004311df02db9606a616804311df028f968
:107b0000a36aab4288bfa562f8bd002fe8d0236905
:107b10006068626899688360d16060689d68616828
:107b20006668e26804306860043101320348996095
:107b3000e2607061f8bd00bfe4f00020f0f00020ca
:107b400080b5144c144f4ff0805614e00ff08cffaa
:107b5000e36bdd68281d1df015f9636c013b636460
:107b6000e36a013be3620ff08fff286b0ff088faa6
:107b700028460ff085fae36a002be7d1a36c012bae
:107b800004d93e60bff34f8fbff36f8f24f054f9d9
:107b9000f1e700bfe4f0002004ed00e0024b5a6a78
:107ba000d26812689a627047e4f000202de9f84f1d
:107bb0009600074630460d4698460ff0e9f9002832
:107bc00000f09380814654200ff0e2f9044600282b
:107bd00000f09580c0f8309032464846a5212bf041
:107be0006bf8d4f83090002d00f097806b1e04f1f4
:107bf00033010f3513f8012f01f8012f0ab1ab4201
:107c0000f8d1002384f843300a9d042d28bf0425b1
:107c10004ff0000b04f1040ae562c4e9115b504621
:107c2000043e1df081f8c5f1050504f118004e442d
:107c30001df07af8a56126f00700c4f84cb084f86e
:107c400050b084f851b024616462424639460ff066
:107c5000ddfe0b9b206003b11c60494d0ff004ff5b
:107c60006b6c01336b646b68002b4ed0d5f8e82049
:107c7000e36a002a3dd005f1480703eb8301890040
:107c80006818d5f808c0c26ca260012606fa03f392
:107c900043ea0c03ab609368e3609368d0f848c094
:107ca000c3f804a03944d5f8ec70c2f808a00ceb76
:107cb0000602bb1961618264c5f8ec300ff0e4fe86
:107cc000d5f8e83073b16a68e36ad26a9a4209d299
:107cd0002c4b4ff080521a60bff34f8fbff36f8f62
:107ce000304600e03046bde8f88f4ff0ff30bde889
:107cf000f88f6a68d26a9a4298bf6c60bbe74846c0
:107d00000ff0bef94ff0ff30ede76c606b6c012bac
:107d100006d0e36a05f14807afe784f8345073e70b
:107d200005f1480738461cf0f3ff05f15c001cf034
:107d3000efff05f170001cf0ebff05f184001cf073
:107d4000e7ff05f1ac0805f198001cf0e1ff05f133
:107d5000c00640461cf0dcff30461cf0d9ff05f1a0
:107d6000d4001cf0d5ff05f130001cf0d1ff05f167
:107d70000c001cf0cdffc5f82480e36a2e627ce77e
:107d8000e4f0002004ed00e070b505462b4c0ff048
:107d90006bfe002d3fd02e1d30461cf0f3ff30b996
:107da000ea6a02eb820304eb83039b6c5bb3ab6a6e
:107db0001bb105f118001cf0e5ffd4f8ec30626847
:107dc0000133aa42c4f8ec3030d0636c013b6364e9
:107dd000636a1b689bb1fff7e1fe0ff055fe636815
:107de000ab4205d0286b0ff04bf928460ff048f94d
:107df000d4f8e83013b16368ab420ed070bd4ff0d9
:107e0000ff33a362e9e7a368012101fa02f223ea42
:107e10000202a260cbe76568bde7094b4ff08052d4
:107e20001a60bff34f8fbff36f8f70bd31460548a7
:107e30001cf07effe36a0133e362cee7e4f000204a
:107e400004ed00e014f100202de9f041174c6368c7
:107e500083421cd005460ff007fe676a6e69d4f8ae
:107e600020800ff011febe420ed046450cd004f12a
:107e70000c039e420ed03034a64215d0002e0cbf0b
:107e800004200120bde8f0810220bde8f08100203f
:107e9000bde8f081ab6a002bf6d195f85030012b8c
:107ea0000cbf02200320f0e70420eee7e4f00020fe
:107eb00010b504460ff0d8fd24b1e46a0ff0e4fddc
:107ec000204610bd034b5c68e46a0ff0ddfd2046e0
:107ed00010bd00bfe4f00020eff311834ff020024b
:107ee00082f31188bff36f8fbff34f8f18b1c06a51
:107ef00083f311887047034a5068c06a83f311887e
:107f0000704700bfe4f0002004292de9f84328bfa2
:107f1000042104460d460ff0a7fd002c61d0636cd0
:107f2000ab425ad0dff8cc800bd2d8f80420a24262
:107f30005ad0d8f80420d76aaf428cbf0027012757
:107f400005e0d8f804703f1bb7fa87f77f09e66aa7
:107f50006564b342a36908bfe562002ba4bfc5f105
:107f60000505a561214d626906eb860305eb8303d8
:107f70009a4229d104f1040948461cf003ff40b994
:107f8000d8f80830012202fa06f623ea0606c8f8f5
:107f90000860e26ad8f8086002eb8201890008eb09
:107fa000010001239340c26c3343c8f80830936842
:107fb000e360836c9668a2600d440133c6f80490b8
:107fc000c2f80890656183643fb1094b4ff080525d
:107fd0001a60bff34f8fbff36f8fbde8f8430ff008
:107fe00053bd044b5c689ae70027b0e72cf10020f2
:107ff00004ed00e0e4f000202de9f041224d6b6833
:1080000083420cd058b104460ff02efd626905f191
:108010000c039a4205d0bde8f0410ff035bdbde834
:10802000f081a36a05f1d4029342f4d0002bf2d17f
:1080300004f1040840461cf0a5fee26aaf6802ebba
:10804000820080002e180123f16ca16093403b4315
:108050008f68e760ab608b68b76cc3f8048005f18c
:10806000480318440137c1f808806061b7646b6841
:10807000db6a9a42cfd3054b4ff080521a60bff3b0
:108080004f8fbff36f8fc6e7e4f0002004ed00e0f0
:1080900030b5144d1449154883b005f1f0030024a0
:1080a000cde900434ff480722346fff77ffd01289e
:1080b00003d00f4b1b6803b030bd4ff0200383f398
:1080c0001188bff36f8fbff34f8f4ff0ff33ab6259
:1080d000c5f8e8002c600ff03ffd054b1b6803b0ae
:1080e00030bd00bfe4f0002014320301417b0001e9
:1080f0006c0101204ff0200383f31188bff36f8fd1
:10810000bff34f8f024b0022c3f8e8200ff0aabc48
:10811000e4f00020034ad2f8f4300133c2f8f4301e
:10812000704700bfe4f00020014b1868704700bfa3
:10813000e4f00020014b1868704700bfe4f0002015
:10814000014b586c704700bfe4f0002008b1343098
:108150007047024b58683430704700bfe4f000208d
:108160002de9f04f564cd4f8f43083b0002b40f09a
:10817000908020680130206080b9636a226a626260
:108180002362d4f8f8300133c4f8f830636a1b680e
:10819000002b40f08a804ff0ff33a362a36a98421d
:1081a0004ff000065cd3dff81c81b4464ff0010e9f
:1081b0004fe0636adb68db685a68904203f10405ac
:1081c00003f118097ad35a69d3e90271d2f804a0ed
:1081d000b960aa454f60176808bf5160996ac3f833
:1081e00014c0013f176071b1d3e90772d1f804a040
:1081f000ba601a6aca45576008bf4a600a68c3f87d
:1082000028c0013a0a60d96aa76801eb810292008e
:1082100004eb02090efa01fbd9f84ca0c3f808a040
:108220004bea0707a760daf80870df604244d9f824
:1082300048700192daf8082001375560019acaf8af
:1082400008505a61c9f848706368db6a994228bfd0
:108250000126636a1b68002babd14ff0ff33a3628a
:108260006368db6a03eb830304eb83039a6cd4f843
:10827000fc30022a28bf012643b1d4f80031002b7c
:1082800018bf0126304603b0bde8f08f23f0d6fdbd
:10829000f3e7d4f8fc300133c4f8fc3023f0cefd12
:1082a0000026304603b0bde8f08ffff777fca36ae5
:1082b00098424ff00006bff476afd1e7a262cfe755
:1082c000e4f000202cf100202de9f047454c0ff0a0
:1082d000cbfbd4f8f430013bc4f8f430d4f8f430dc
:1082e000002b67d1626c002a64d09e464ff0010ad1
:1082f00004f1480cd4f8d420002a44d0d4f8e0305b
:10830000db68d9691d6a9a6a8d60186a566841608f
:1083100003f118018e42116808bf55600139c3f896
:1083200028e011605869d3e9021245688a6003f1b8
:1083300004085160d96a0668454508bf426001ebf0
:1083400081029200013e0660a518a668e86c98605c
:108350000afa01f949ea0606a6608668de60ae6c94
:10836000876862440136c7f80480c0f808805a6103
:10837000ae646268d26a9142bcd3c4f800a1d4f85a
:10838000d420002abad12bb1636a1b6833bb4ff0eb
:10839000ff33a362d4f8fc504db10126fff7e0fe95
:1083a00008b1c4f80061013df8d1c4f8fc50d4f81c
:1083b00000312bb900240ff067fb2046bde8f087a1
:1083c000094b4ff080521a60bff34f8fbff36f8f8e
:1083d00001240ff059fb2046bde8f087fff7defbd4
:1083e000d8e700bfe4f0002004ed00e0134ad2f823
:1083f000f430013310b5c2f8f4300368146859182a
:108400002cbf01220022a34201600ed972b90024c0
:10841000fff75aff38b90a4b4ff080521a60bff38a
:108420004f8fbff36f8f204610bd0ab98c42eed23a
:10843000081b0021fff73cfb0124e9e7e4f00020e2
:1084400004ed00e008b540b90b4b4ff080521a60c4
:10845000bff34f8fbff36f8f08bd084ad2f8f430d7
:108460000133c2f8f4300021fff722fbfff72cffa5
:108470000028e9d008bd00bf04ed00e0e4f00020d2
:10848000064bd3f8f4100131c3f8f410d3f8fc20f4
:108490000244c3f8fc20fff717bf00bfe4f0002040
:1084a0002de9f041294cd4f8f4300133c4f8f4300c
:1084b0000546fff7c9fc022805d00024fff704ff9a
:1084c0002046bde8f0812e1d30461cf05bfc0ff00d
:1084d000cbfaab6a33b105f118001cf053fc012351
:1084e00085f851300ff0d0faea6ad4f80880dff846
:1084f00060e002eb8200800004eb000c0123dcf85a
:108500004c10a96003fa02f747ea0807a7608f68d2
:10851000ef60dcf84870864488681f4446608e60cf
:10852000c5f814e0ccf848706168c96a8a4207d976
:10853000c4f800311c46fff7c7fe2046bde8f081b5
:108540001c46fff7c1fe2046bde8f081e4f00020a4
:108550002cf1002010b51c4cd4f8f4301bb10123d1
:10856000c4f8003110bdc4f8003163681b6b1a6891
:10857000b2f1a53f03d15a68b2f1a53f1ad06068a5
:108580006168343123f044fca368b3fa83f3dbb2af
:10859000c3f11f0303eb83039b00e1180b48ca6c74
:1085a0005268ca6403449a4204bf5268ca64d368da
:1085b000636010bd9a68b2f1a53fe0d1db68b3f10a
:1085c000a53fdcd1e0e700bfe4f0002034f100205b
:1085d00070b504462c4d0ff047fa002c40d0261df4
:1085e00030461cf0cffb30b9e26a02eb820305eba8
:1085f00083039b6c13b3a36a1bb104f118001cf036
:10860000c1fb314621481cf093fb94f85030012bfc
:1086100004bf002384f850300ff036fad5f8e83064
:10862000a3b96b68a34200d070bdd5f8e830ebb9b0
:10863000e9686a6c914222d16b6070bdab68012120
:1086400001fa02f223ea0203ab60d4e70ff00cfa5e
:108650006b6a1b6833b1fff7a1fa0ff015fae0e778
:108660006c68bce74ff0ff33ab62f6e7084b4ff0a6
:1086700080521a60bff34f8fbff36f8f70bdbde89c
:108680007040fff767bf00bfe4f00020f0f000206b
:1086900004ed00e010b5064b5b680c4603f11801d1
:1086a0001cf056fb20460121bde81040fff700ba40
:1086b000e4f000200e4bf0b445685f685e68044645
:1086c00041f000415868b961a9685f68f5610162cd
:1086d00059685e6823681046aa6818371831013354
:1086e0005760a960b46201212360f0bcfff7e0b9d4
:1086f000e4f00020c368db68996ad3e90702f0b5ab
:108700004d68826003f1180450600868a54208bff4
:108710004a600138254a00259d620860d2f8f400bd
:10872000d96a002830d19c685869dd68a560466820
:10873000dd68dff87ce06c6003f1040c04686645da
:1087400008bf456001eb8105ad00013c046056198e
:108750009768f46c9c600120884038439060a7685b
:10876000b06cdf60a76875440130c7f804c0c4f876
:1087700008c05d61b0645368db6a8b423abf012078
:10878000c2f800010020f0bdd2f8d800d861856899
:108790001d628668d2f8d4507460013502f1d406a7
:1087a0008460c2f8d4509e62e5e700bfe4f0002088
:1087b0002cf100202de9f041446802698568c36806
:1087c00041f000410160a560816855684c608542b8
:1087d0004ff0000408bf51601168046158699c683b
:1087e000dd68013911604168a56003f1040eda68a3
:1087f000066854607145d96a08bf426001eb810484
:10880000114aa400013e066015199768e86c98604b
:108810004ff0010808fa01f63e4396608668de6074
:10882000ae6c876802f1480c64444644c7f804e023
:10883000c0f808e05c61ae645368db6a994288bfa7
:10884000c2f80081bde8f081e4f0002010b50446d4
:108850000ff00af9044bd3f8f8201b68c4e9002391
:10886000bde810400ff010b9e4f00020034bd3f83e
:10887000f8201b68c0e90023704700bfe4f0002027
:10888000f8b505460c460ff0eff81b4a1068536820
:1088900093f8513043b15368002283f851200124ea
:1088a0000ff0f2f82046f8bd21684e1c1ed0d5e925
:1088b0000073d2f8f860b74208d0834206d800238c
:1088c000236001240ff0e0f82046f8bdc61ab1423b
:1088d000f5d9091a1944d2f8f80013682160c5e9de
:1088e000000300240ff0d0f82046f8bd1c460ff01e
:1088f000cbf82046f8bd00bfe4f00020024b012277
:10890000c3f80021704700bfe4f00020014b586815
:10891000704700bfe4f0002018b3f8b5284cc36ad4
:108920006268d26a934214d28269002a04db6268c8
:10893000d26ac2f105028261224d426903eb8303d0
:1089400005eb83039a420dd06368db6ac3620120a2
:10895000f8bd6368406cdb6a98422cbf00200120a0
:10896000f8bd7047071d064638461cf00bfa30b9b3
:10897000f16aa36801228a4023ea0203a3606368c4
:10898000d4f808e0db6af36203eb8301890004ebaf
:10899000010c0120dcf84c20b26000fa03f343ea3a
:1089a0000e03a3609368dcf84840f36093680d44bd
:1089b00004445f6097607561ccf84840f8bd00bf23
:1089c000e4f000202cf1002038b1836cc16a426cc5
:1089d000013b9142836400d00bb1002070472de928
:1089e000f04100f10408044640461cf0cbf9164d56
:1089f00030b9e16aab6801228a4023ea0203ab6026
:108a0000636cd5f808e0dff844c0e36203eb830150
:108a100089006e180120f26c9768e76000fa03f78e
:108a200047ea0e07af60b56c9768a2606144c3f176
:108a300005030544a361c7f80480c2f8088061619a
:108a4000b564bde8f08100bfe4f000202cf1002007
:108a500058b1426cf8b59142c36a38bf11468b4297
:108a600002d0826c012a01d0f8bd704782691b4d8b
:108a7000c162002a03eb8303426905f14806a8bfdf
:108a8000c1f1050106eb8303a8bf81619a42ebd1d6
:108a9000071d044638461cf075f9e36ab8b1012198
:108aa000994003eb83039b00e818d5f808c0c26c1b
:108ab000a2604cea0101a9609168856ce16091684f
:108ac0001e4401354f60976066618564f8bdaa68f1
:108ad0000121994022ea0102aa60e2e7e4f00020c5
:108ae000044a516853685268db6a8869c3f1050318
:108af00093617047e4f00020044b5a681ab159683a
:108b00008a6c01328a645868704700bfe4f0002024
:108b10002de9f0411f4d06460f4690460ef0a4ff8a
:108b20006b6806f1120403eb84035b683bb96b6866
:108b30003344012183f85010b8f1000f1ed10ef01c
:108b4000a3ff0ef091ff6b68a4002344d3f80480c8
:108b5000b8f1000f04d06b681c445fb10023636060
:108b60006b683344002283f850200ef08dff40469e
:108b7000bde8f08108f1ff336360f1e74046fef79e
:108b800097ff054b4ff080521a60bff34f8fbff332
:108b90006f8fd4e7e4f0002004ed00e02de9f04110
:108ba000264d04461f46884616460ef05dff6b684c
:108bb000234493f85030022b0dd06b6803eb8403f1
:108bc0000121da6c22ea0802da646b68234483f834
:108bd0005010069be3b90ef057ff0ef045ff37b17a
:108be0006b6804f1120203eb82035b683b606b6805
:108bf000234493f85030022b16d000276b681c4496
:108c0000002384f850300ef03fff3846bde8f08175
:108c10001846fef74dff0a4b4ff080521a60bff323
:108c20004f8fbff36f8fd6e76b6803eb8403012789
:108c3000da6c22ea0606de64e0e700bfe4f000201a
:108c400004ed00e02de9f843ddf8208004460d46f0
:108c500017461e460ef008ffb8f1000f06d005f1ca
:108c6000120304eb83035b68c8f800306219022129
:108c700092f8500082f85010731ec0b2032b08d82f
:108c8000dfe803f0025a110f04eb8505eb6c1f437c
:108c9000ef6401280dd001240ef0f6fe2046bde859
:108ca000f88302284ed0123504eb850501286f6049
:108cb000f1d16169a368e2689a604868e26804f1ea
:108cc00004084045536008bf4a60e26a08681e4bca
:108cd00002eb8205ad00013808605e19d3f808c0c8
:108ce000f16ca1604ff0010909fa02f747ea0c079d
:108cf0009f608f68d6f848c0e760886803f1480e27
:108d00000eeb05070ceb0905c0f80480c1f80880dc
:108d10006761b5645b68db6a9a42bcd90b4b4ff064
:108d200080521a60bff34f8fbff36f8f4c460ef027
:108d3000abfe2046bde8f88304eb8505eb6c013300
:108d4000eb64a6e70024a7e7e4f0002004ed00e0d0
:108d50002de9f041069deff311864ff0200484f3d6
:108d60001188bff36f8fbff34f8f2db101f1120444
:108d700000eb840464682c604418022794f8505077
:108d800084f85070013bedb2032b08d8dfe803f004
:108d9000023d100e00eb8101cb6c1a43ca64012d19
:108da0000cd0012086f31188bde8f081022d5fd040
:108db000123100eb8101012d4a60f2d12d4bc26ac4
:108dc000d3f8f41039b3d3f8d810c1618c680462b9
:108dd0008d68d3f8d44000f118076f60013403f1b7
:108de000d4058f60c3f8d44085625968c96a91423e
:108df000d7d2079a12b1079901220a600120c3f85d
:108e0000000186f31188bde8f08100eb8101cb6c95
:108e10000133cb64c3e784684169c568a5604f68c6
:108e2000c568dff854e06c6000f104080c68474541
:108e300008bf4d6002eb8205ad00013c0c6003eb06
:108e4000050c9f68dcf84c40846001219140394357
:108e50009960a768c760dcf84870a168754401375d
:108e6000c1f80480c4f808804561ccf84870bce7bc
:108e7000002097e7e4f000202cf100202de9f043da
:108e8000eff311844ff0200383f31188bff36f8f4a
:108e9000bff34f8f4318022600eb810193f8505027
:108ea00083f85060cb6c012d03f10103cb6403d038
:108eb00084f31188bde8f0832b4bc16ad3f8f450da
:108ec0000db3d3f8d850c561ae680662af68d3f869
:108ed000d46000f1180cc7f804c0013603f1d407c0
:108ee000c5f808c0c3f8d46087625868c06a884271
:108ef000ded20ab1012111600122c3f8002184f3fe
:108f00001188bde8f0838668c7684569b760c7689f
:108f1000d5f804c07e6000f104092e68dff84c80ab
:108f2000cc4501eb810c4fea8c0c06f1ff362e602c
:108f300003eb0c0e08bf6f609f68def84c60866024
:108f400001258d403d439d60b768c760def84870dd
:108f5000b568c4440137c5f80490c6f80890c0f855
:108f600014c0cef84870c0e7e4f000202cf10020d7
:108f700038b50d4680b104462c440ef075fd94f8ca
:108f80005030022b05bf002384f850300024012408
:108f90000ef07afd204638bd014b5c68ece700bf5f
:108fa000e4f0002070b50e46154668b104460ef098
:108fb0005bfd04eb8601cc6ccb6c23ea0503cb6430
:108fc0000ef062fd204670bd014b5c68efe700bf0c
:048fd000e4f00020a9
:020000040000fa
:020000040100f9
:108fd40000b5c3b00a2301a9002204488df8043067
:108fe40016f0d0fe43b05df804fb00bf5001002032
:108ff40000b5c3b00b2301a9002204488df8043046
:1090040016f0c0fe43b05df804fb00bf5001002021
:109014000f282de9f0473ad03d4c00eb800304ebd8
:10902400c304054694f8200060b33a4900200df0cb
:10903400e9fa2a46384900200df0a8fa228937496e
:1090440000200df0a3fae27a334900200df09efad5
:1090540094f90a20304900200df098fad4e9042349
:109064002f4900200df092fad4e906232c49002060
:109074000df08cfad4e900232a490020bde8f0471a
:109084000df084ba2849bde8f0470df0bbba204f73
:10909400214d3c46a5f13c0100200df0b3fa94f8b3
:1090a400203005f1040905f10c08002643b92834e1
:1090b4000eb1bde8f08794f820300126002bf6d0dd
:1090c4003246294600200df061fa228949460020e3
:1090d4000df05cfae27a294600200df057fa94f973
:1090e4000a20294600200df051fad7e90e23414603
:1090f40000200df04bfad7e91023414600200df073
:1091040045fad4e90023074900200df03ffacee7e1
:1091140078000020d04601010c47010110470101ed
:1091240018470101204701012447010130b4084bcd
:109134000a89d1e9004500eb800003ebc00001235c
:10914400c0e90045028180f8203030bc704700bf80
:109154007800002070b582b0c388adf800300446b2
:10916400694653200cf03cf8002840f027816946fa
:10917400532016f051fe18b9984bbdf80020da8040
:109184006388adf80030694650200cf029f80028b7
:1091940040f014816946502016f03efe18b98f4bfa
:1091a400bdf800205a8094f83d300d2b00f20d815b
:1091b400694603208df800300cf012f8002840f0c6
:1091c400fd806946032016f027fe20b9834b9df8e5
:1091d400002083f83d202378a3f10b020f2a00f22c
:1091e400f480694600208df800300bf0f9ff002868
:1091f40040f0e480694616f00ffe18b9774b9df8ed
:1092040000201a70637813f0fd0f04d0a3f110024c
:10921400012a00f2da80694604208df800300bf050
:10922400dfff002840f0ca806946042016f0f4fdf0
:1092340018b96a4b9df800205a70d4e90a2369468c
:10924400f020cde900230bf0cbff002840f0b680de
:109254006946f02016f0e0fd30b9dde900015f4b0e
:10926400c3e90a01c3e9020194f84330da1e052a6e
:1092740000f2ab80694657208df800300bf0b0ff48
:10928400002840f09b806946572016f0c5fd20b9a0
:10929400524b9df8002083f8432094f84430032b6c
:1092a40000f2938069464f208df800300bf098ff50
:1092b400002840f0838069464f2016f0adfd20b9a8
:1092c400464b9df8002083f8442094f9212002f1b4
:1092d4000c03dbb21a2b78d8404d85f8212094f981
:1092e400212012f1200f75db1f2a75dc002ad3b26e
:1092f40003da03f01f0343f02003694602208df8cc
:1093040000300bf06dff002858d16946022016f09a
:1093140083fd18b99df8003085f8223094f83f3069
:1093240085f83f3094f83b30618a85f83b30d4e9c6
:109334000c2394f842606982072ec5e90c2344d8b3
:10934400694659208df800600bf04affb0bb6946ae
:10935400592016f061fd18b99df8003085f84230a7
:1093640094f841308df80030694651200bf038fff5
:1093740020bb6946512016f04ffd18b99df8003006
:1093840085f8413094f84030052b1ed869464e20ac
:109394008df800300bf024ff80b969464e2016f09a
:1093a4003bfd18b99df8003085f840300c4b94f81b
:1093b400452085f845200a20187004e0fdf784f95b
:1093c400074b0b20187002b070bd054b0c201870b1
:1093d40002b070bd202390e71f238ee70800002011
:1093e40098ce00202de9f0435e4cdff8848194f898
:1093f40047e083b08e449df828c09df82c709df8fa
:1094040030601d465ffa8efea8eb010859b10139a0
:1094140050fa81f908f1ff33013810f8011f03f8fd
:10942400011f4845f9d1237c022b00f08280d4e946
:1094340002190ef1060ea8f10800a8f109035ffa5b
:109444008efe08f1ff3803f8011f090a984541ea26
:1094540009614fea1929f6d14ff4404894f82030b5
:10946400022b51d0a0f10809bcf1000f42d03e4bb1
:1094740002eb8202d20099189a584b68c4e9062379
:109484000ef1060ea0f109015ffa8efe013801f813
:10949400012f120a814242ea03624fea1323f6d1f2
:1094a40048f44468fe22ca2309f8035c09f8022c34
:1094b40009f8013c17bb48f001084b4609f8058c34
:1094c4004fea182809f8048c03f806ed324694f89c
:1094d4003f100193684624f097ff84f8600098bb1e
:1094e400d4e91232013342f10002c4e9123203b06a
:1094f400bde8f08363464ff6ff72bfe7012348f0ef
:10950400210884f84530d8e7a0f10209bcf1000f26
:1095140022d0154b02eb820203ebc2031b89d9b2a2
:109524001a0a638200f8021c00f8012c48f404684b
:10953400b8e7e38808f8023c1b0a08f8013ca8f1e4
:1095440002004ff4004889e72a46084900200df03c
:109554001df803b0bde8f083ff2211464ff6ff73f8
:10956400dfe700bf08000020780000204047010129
:1095740026cf002070b5a2b074226121054604a84c
:1095840029f098fb1d491e4a91f8903092f8484002
:109594005a1cd2b2f5b11b4d6cb9cde9014400940b
:1095a40004a881f8902085f838400f227421fff731
:1095b40019ff22b070bd012481f8902004a8cde9e0
:1095c400014400942246742185f83840fff70affcd
:1095d40022b070bd7cb101240a4e0195029400941e
:1095e40004a881f890202246742186f83840fff7b9
:1095f400f9fe22b070bd034dcfe700bf98ce002026
:10960400780000200800002010b5154982b00446f7
:1096140000200cf0f7ff134b02225a70042c1ad8c6
:10962400dfe804f00303030803000120fff7a2ffaf
:1096340002b010bd012025f03ffc012469465120f1
:109644008df800400bf0ccfd20461ff01dfefdf709
:1096540081f902b010bd044900200cf0d3ffe7e704
:109664005c47010198ce002090470101f0b5064601
:10967400a3b00d4604a87822002129f01bfbf3783f
:109684003a2b25d0594f5a4a97f8913092f84810fe
:109694005a1cd4b259b9cde901110091304629467a
:1096a4000f2287f89140fff79dfe23b0f0bddff84d
:1096b40048c187f89140012429463046cde9014448
:1096c400009422468cf83940fff78cfe23b0f0bd9d
:1096d400042d0bd96c1f56fa84f40434f31c04aa29
:1096e40013f8010f02f8010b9c42f9d13278737818
:1096f400043d662aedb257d0462a40d002eb8201df
:10970400a3f1100202eb4102d2b2012a1cd838495b
:10971400364fdff8e4c002eb820301ebc30197f894
:10972400913091f820405e1cf6b2002c3fd0012409
:10973400294604a8cde90144009487f891608cf887
:109744003940fff74ffeb0e72a4900200cf01eff16
:10975400274b264a93f84840b4b392f89130264eea
:109764005c1c82f891400124cde90144009429460f
:1097740004a8224686f83940fff734fe95e7462bc5
:10978400bcd11a4a1c4e92f891305c1c82f891406c
:109794000024cde901440094294604a80f2286f848
:1097a4003940fff71ffe80e7662ba7d1e9e7cde933
:1097b40001440094294604a80f2287f891608cf88c
:1097c4003940fff70ffe70e7029492f891300a4e89
:1097d40029465d1ccde9004404a882f8915086f81e
:1097e40039400f22fff7fefd5fe700bf98ce00204f
:1097f40078000020ac47010108000020032838b598
:1098040004460d4601d803290cd90f4900200cf059
:10981400bdfe022c0d4b0bd0032c0fd0122283f86b
:10982400472038bd094b022c187483f82010f3d15b
:10983400022df3d10b2283f8472038bd032dedd13f
:10984400172283f8472038bdcc47010108000020c7
:10985400052803d8034b83f84600704702490020cb
:109864000cf094be08000020ec470101014b83f882
:1098740061007047080000202de9f0410546a4b0be
:1098840001a88c22002129f015fa6e68dff8fc800b
:1098940034787cb198f847200df10503023a601e34
:1098a40053fa80f0324401ab12f8011f03f8011b94
:1098b4008342f9d12644b67829f00cfd6b681a1955
:1098c400064428685778dd7817f026f898f847306a
:1098d4002549e41a2a46e4b200200cf057fe234935
:1098e400002022460cf052fe2149002076b20cf0f2
:1098f4004dfe7cb1651e0df10503dff8948001accb
:1099040053fa85f514f8012b414600200cf03efe75
:10991400a542f7d1174c184900200cf073fed4e986
